:020000040800F2
:10000000A00B002041040008E1010008E301000802
:10001000E7010008EB010008EF0100080000000004
:10002000000000000000000000000000F3010008D4
:10003000F501000800000000F7010008F9010008C0
:100040005B0400085B0400085B0400085B04000814
:100050005B0400085B0400085B0400085B04000804
:100060005B0400085B0400085B0400085B040008F4
:100070005B0400085B0400085B0400085B040008E4
:100080005B0400085B0400085B0400085B040008D4
:100090005B0400085B0400085B0400085B040008C4
:1000A0005B0400085B0400085B0400085B040008B4
:1000B0005B0400085B040008EB3200085B040008E6
:1000C0005B0400085B0400085B0400085B04000894
:1000D0005B0400085B0400085B040008C5330008EB
:1000E0005B0400085B0400085B0400085B04000874
:1000F000FF3200085B0400085B0400085B04000892
:100100005B0400085B0400085B0400085B04000853
:100110005B0400085B040008EB3B00085B0400087C
:100120005B0400085B0400085B0400085B04000833
:1001300000F002F800F03FF80AA090E8000C8244BA
:100140008344AAF10107DA4501D100F034F8AFF297
:10015000090EBAE80F0013F0010F18BFFB1A43F0A5
:1001600001031847A0700000C0700000103A24BFBF
:1001700078C878C1FAD8520724BF30C830C144BF0C
:1001800004680C607047000000230024002500264E
:10019000103A28BF78C1FBD8520728BF30C148BFEA
:1001A0000B607047642904F06D81002070471FB513
:1001B0001FBD10B510BD04F089FA1146FFF7F7FF17
:1001C00000F00CF904F0A7FA03B4FFF7F2FF03BC48
:1001D00002F046FA30BF72B662B680F30888704704
:1001E000704700BFFEE700BFFEE700BFFEE700BFAD
:1001F000FEE7704770477047704700000CB500205D
:10020000019000906C48006840F480306A490860B2
:1002100000BF6948006800F4003000900198401C5D
:100220000190009818B90198B0F5A06FF1D162481B
:10023000006800F4003010B10120009001E00020BF
:1002400000900098012843D15C48006840F01000FD
:100250005A4908600846006820F003000860084614
:10026000006840F002000860534840685249486006
:100270000846406848600846406840F4806048602E
:100280000846406820F47C1048600846406840F406
:10029000E81048600846006840F08070086000BFC1
:1002A0004548006800F000700028F9D042484068D6
:1002B00020F00300404948600846406840F00200D2
:1002C000486000BF3C48406800F00C000828F9D1A5
:1002D0000CBD10B5FFF792FF10BD10B53648006891
:1002E00040F001003449086008464068344908403D
:1002F0003149486008460068324908402E49086084
:100300000846006820F4802008600846406820F411
:10031000FE0048604FF41F008860FFF7DAFF4FF0DF
:1003200000602949086010BD10B50021002000229E
:10033000214B5B6803F00C0121B1042906D0082988
:1003400028D107E0214B224C236027E01F4B204C93
:10035000236023E0184B5B6803F47010164B5B6856
:1003600003F48032022303EB904022B9194B43433C
:10037000174C23600DE0104B5B6803F4003323B18E
:10038000144B4343124C236003E0104B4343104C87
:10039000236003E00D4B0E4C236000BF00BF064BF3
:1003A0005B68C3F303130C4CE15C094B1B68CB4047
:1003B000074C236010BD00000010024000200240E6
:1003C0000000FFF8FFFFF6FE08ED00E000127A00E3
:1003D0000000002000093D0004000020022001F080
:1003E000E7FF01F075FF022002F0CCF8012002F0D7
:1003F000C9F802F091F902F0FFF902F0BFF900210B
:1004000041F61F4002F093FE4FF4E13002F038F95C
:100410004FF4165002F088FF02F02FFF02F018FD93
:1004200002F034FC03F046FC03F064FA06E003F04B
:100430001AFF03F0C1FC322001F087FFF7E700004C
:100440000948804709480047FEE7FEE7FEE7FEE768
:10045000FEE7FEE7FEE7FEE7FEE7FEE704480549A4
:10046000054A064B70470000DB0200083101000816
:10047000A0050020A00B0020A0070020A00700205E
:1004800031490143314A1160704770B500210023A2
:100490000F22C47804B32D4C246804F4E064C4F53E
:1004A000E064210AC1F10403CA40447804FA03F16C
:1004B0008478144021430901254C0678A15504781D
:1004C00004F01F050124AC4005786D11AD0005F165
:1004D000E025C5F8004109E0047804F01F05012477
:1004E000AC401C4D0678761145F8264070BD1A4A7E
:1004F0000A400243154B1B1F1A60704739B1134A5B
:10050000121D12680243114B1B1D1A6006E00F4AB0
:10051000121D126882430D4B1B1D1A607047042880
:1005200008D14FF0E021096941F004014FF0E022C9
:10053000116107E04FF0E021096921F004014FF05B
:10054000E0221161704700000000FA050CED00E0A8
:1005500000E400E080E100E080FFFF1F10B50446EA
:10056000FA48844208D10121401500F055FD0021D0
:10057000601500F051FD17E0F548844208D10121D3
:10058000001500F049FD0021201500F045FD0BE0AD
:10059000F048844208D10121C80300F03DFD00214C
:1005A0004FF4004000F038FD10BD30B50246002089
:1005B00000235068E84C20400D790C6844EA05247B
:1005C000204350609068E54C2040D1E902542C4310
:1005D0004D7944EA450420439060D06A20F47000CD
:1005E0000C7C641EE4B2234340EA0350D06230BD69
:1005F00000210160017141718160C16001210174BC
:10060000704721B1826842F00102826003E0826893
:1006100022F001028260704721B1826842F4807248
:10062000826003E0826822F480728260704710B5B5
:100630000023CBB21AB144681C43446002E0446812
:100640009C43446010BD816841F00801816070479F
:10065000014600208A6802F008020AB1012000E089
:1006600000207047816841F00401816070470146B5
:1006700000208A6802F004020AB1012000E0002094
:10068000704721B1826842F4A002826003E0826870
:1006900022F4A00282607047014600208A6802F4BA
:1006A00080020AB1012000E00020704710B50A4620
:1006B00000210023416821F46041531E41EA433187
:1006C000416010BD21B1426842F40062426003E023
:1006D000426822F4006242607047F0B504460D465D
:1006E00000200021092D11DDE068A5F10A0606EBC6
:1006F0004607072606FA07F18843A5F10A0606EB26
:10070000460603FA06F10843E0600CE0206905EBB9
:100710004507072606FA07F1884305EB450603FA65
:1007200006F108432061072A0FDA606B561E06EBBC
:1007300086071F2606FA07F18843561E06EB860633
:1007400005FA06F10843606322E00D2A0FDA206BF8
:10075000D61F06EB86071F2606FA07F18843D61F29
:1007600006EB860605FA06F10843206310E0E06A0E
:10077000A2F10D0606EB86071F2606FA07F188434D
:10078000A2F10D0606EB860605FA06F10843E062C3
:10079000F0BD21B1826842F48012826003E0826879
:1007A00022F48012826070470146C86C80B27047A4
:1007B00066484C300068704721B1426842F480625C
:1007C000426003E0426822F480624260704721B1D7
:1007D000426842F48052426003E0426822F4805250
:1007E000426070470A460021816821F4E0411143CC
:1007F0008160704721B1826842F40042826003E068
:10080000826822F400428260704721B1826842F41B
:100810000212826003E0826822F402128260704752
:10082000014600208A6802F400120AB1012000E0AB
:1008300000207047F0B5044615460020002200262F
:10084000092911DDE068A1F10A0707EB470C07272A
:1008500007FA0CF29043A1F10A0707EB470703FAE6
:1008600007F21043E0600CE0206901EB410C072720
:1008700007FA0CF2904301EB410703FA07F2104329
:100880002061A06BC0F30156EF1C06F1010CA7EB31
:100890000C0707EB870C1F2707FA0CF29043EF1C9D
:1008A00006F1010CA7EB0C0707EB870701FA07F22B
:1008B0001043A063F0BD10B50A4600210023816BF0
:1008C00021F44011531E41EA0351816310BD08B564
:1008D000002300930090009B0B440093009B1A6040
:1008E00008BD08B5024600200090009201F12800E2
:1008F000009B184400900098006880B208BD0A462A
:1009000000214168164B1940114341607047416214
:10091000826270470A460021416821F01F0111439D
:100920004160704740B109490831096841F400014C
:10093000064A0832116007E004490831096821F4C9
:100940000001024A08321160704700000024014093
:1009500000280140003C0140FFFEF0FFFDF7F1FFE1
:10096000FFFD3FFF0246002013680B400BB1012042
:1009700000E000207047CA430260704770B502462D
:100980000020002300240B125568CEB205EA0604AD
:1009900015681D4015B10CB1012000E0002070BDAC
:1009A00000220A12D34303607047000010B50446CA
:1009B000CC48844208D10121042000F02DFB002105
:1009C000042000F029FB46E0C748844208D10121F9
:1009D000082000F021FB0021082000F01DFB3AE078
:1009E000C248844208D10121102000F015FB0021EB
:1009F000102000F011FB2EE0BD48844208D10121F7
:100A0000202000F009FB0021202000F005FB22E05F
:100A1000B848844208D10121402000F0FDFA0021AD
:100A2000402000F0F9FA16E0B348844208D10121D1
:100A3000802000F0F1FA0021802000F0EDFA0AE0B9
:100A4000AE48844207D10121801500F0E5FA00216B
:100A5000A01500F0E1FA10BD10B50121084600F024
:100A6000DBFA0021012000F0D7FA10BD2DE9F0419A
:100A7000024600250026002000230024002791F8CC
:100A800003C00CF00F0591F803C00CF0100CBCF182
:100A9000000F03D091F802C04CEA050591F800C0A0
:100AA000BCF1000F31D0146800202BE04FF0010C96
:100AB0000CFA00F3B1F800C00CEA03069E4220D104
:100AC00083004FF00F0C0CFA03F7BC4305FA03FC4C
:100AD0004CEA040491F803C0BCF1280F06D14FF092
:100AE000010C0CFA00FCC2F814C00AE091F803C033
:100AF000BCF1480F05D14FF0010C0CFA00FCC2F814
:100B000010C0401C0828D1D31460B1F800C0BCF15B
:100B1000FF0F34DD546800202EE000F1080C4FF088
:100B2000010808FA0CF3B1F800C00CEA03069E4273
:100B300021D183004FF00F0C0CFA03F7BC4305FAE8
:100B400003FC4CEA040491F803C0BCF1280F05D162
:100B500000F1080C08FA0CF8C2F8148091F803C0F0
:100B6000BCF1480F07D100F1080C4FF0010808FA5A
:100B70000CF8C2F81080401C0828CED35460BDE8A1
:100B8000F0814FF6FF710180022181700421C17054
:100B900070470246002093680B400BB1012000E033
:100BA000002070470146886880B2704702460020E6
:100BB000D3680B400BB1012000E0002070470146D4
:100BC000C86880B2704701617047416170470AB1DF
:100BD000016100E041617047C16070474FF48032AD
:100BE0000A4382618161826182698269704702463B
:100BF0000020434B18684FF68073184040EA0210FB
:100C000008433F4B186070473E49C8617047F0B5D4
:100C10000A46002300240021002500F00046B6F11A
:100C2000004F02D1364EF16901E0354E7168C0F3D4
:100C3000034583B200F44016B6F5401F08D121F0F9
:100C400070612F4E766826F070662D4F7E6012E040
:100C500000F48016B6F5801F06D1032606FA05F4C7
:100C6000A14341F0706106E0460D360103FA06F635
:100C7000B14341F0706122B1460D360103FA06F628
:100C8000314300F00046B6F1004F02D11C4EF16135
:100C900001E01B4E7160F0BD30B500228B071C0FC8
:100CA0000F2303FA04F2164B08338C1053F8243048
:100CB0009343134C08348D1044F8253023468C1090
:100CC00053F824308C07240F00FA04F423430C4C0F
:100CD00008348D1044F8253030BD0A49DC310860F5
:100CE0007047000000080140000C01400010014066
:100CF0000014014000180140001C01400020014088
:100D00000000014000002042DF48006840F0010080
:100D1000DD49086008464068DC490840DA49486017
:100D200008460068DA490840D74908600846006864
:100D300020F4802008600846406820F4FE004860E7
:100D40004FF41F0088607047CF49096821F4803153
:100D5000CD4A11601146096821F480211160B0F577
:100D6000803F03D0B0F5802F0ED106E0C649096858
:100D700041F48031C44A116007E0C349096841F475
:100D8000A021C14A116000E000BF00BF704710B54C
:100D900001460022002300204A11012A02D1BA4C48
:100DA000236806E0022A02D1B74C236A01E0B64C60
:100DB000636A01F01F02012494401C400CB1012021
:100DC00000E0002010BD38B5002000900024002570
:100DD00000BF3120FFF7DBFF05460098401C009064
:100DE0000098B0F5A06F01D0002DF2D03120FFF7B0
:100DF000CEFF08B1012400E00024204638BD0146A2
:100E00000020A14A106820F0F80040EAC1001060FC
:100E10007047A04908607047024600209A4B586806
:100E200020F47C1042EA01031843974B5860704746
:100E300098490866704701460020934A506820F0A0
:100E400003000843506070478F48406800F00C0072
:100E50007047014600208C4A506820F0F00008439B
:100E60005060704701460020874A506820F4E060D7
:100E700008435060704701460020834A506820F4C0
:100E8000605040EAC1005060704729B17E4A527AF2
:100E900002437D4B5A7204E07B4A527A82437A4B7A
:100EA0005A7270477B49D83108607047014600206C
:100EB000754A506820F44040084350607047002154
:100EC000714A20321170704A82F82010012802D035
:100ED00004280AD104E001216B4A2032117005E098
:100EE0000521694A2032117000E000BF00BF704741
:100EF0006949086070476449096A0143624A11629E
:100F00007047654944390860704730B500210022B8
:100F1000002400235C4D6D6805F00C0121B104290B
:100F200005D0082923D105E05C4D056022E05B4D2A
:100F300005601FE0544D6D6805F47012524D6D68E8
:100F400005F48034022505EB92421CB9544D5543FB
:100F500005600BE04C4D6D6805F400351DB1504D3A
:100F60005543056002E04D4D5543056002E04B4D91
:100F7000056000BF00BF444D6D6805F0F001090930
:100F8000484D6B5C0568DD4045603F4D6D6805F47C
:100F9000E061090A434D6B5C4568DD4085603A4D70
:100FA0006D6805F46051C90A3E4D6B5C4568DD40D3
:100FB000C560354D6D6805F44041890B3A4D6B5C59
:100FC000C568B5FBF3F5056130BD29B12E4A5269FC
:100FD00002432D4B5A6104E02B4A526982432A4B4B
:100FE0005A61704729B1284A92690243264B9A6197
:100FF00004E0254A92698243234B9A61704729B1E4
:10100000214AD2690243204BDA6104E01E4AD269C8
:1010100082431D4BDA61704729B11B4AD2680243F3
:10102000194BDA6004E0184AD2688243164BDA6042
:10103000704729B1144A12690243134B1A6104E044
:10104000114A12698243104B1A61704712494039A4
:10105000086070470F49C86470470B49C8717047F2
:101060000948406A40F0807007494862704701466D
:101070000020054A92680A400AB1012000E00020E1
:101080007047014988727047001002400000FFF865
:10109000FFFFF6FE000042428004424200127A0046
:1010A00000093D00140000202400002010B5044673
:1010B000FE48844208D10121C014FFF7ADFF002192
:1010C000E014FFF7A9FFC4E0B4F1804F08D101217B
:1010D0000846FFF7AEFF00210120FFF7AAFFB8E0A6
:1010E000F348844208D101210220FFF7A2FF00212A
:1010F0000220FFF79EFFACE0EE48844208D10121B8
:101100000420FFF796FF00210420FFF792FFA0E0E4
:10111000E948844208D101210820FFF78AFF002115
:101120000820FFF786FF94E0E448844208D10121BB
:101130001020FFF77EFF00211020FFF77AFF88E0E4
:10114000DF48844208D101212020FFF772FF0021EF
:101150002020FFF76EFF7CE0DA48844208D10121AD
:101160004014FFF759FF00216014FFF755FF70E0AE
:10117000D548844209D10121C804FFF74DFF002161
:101180004FF40020FFF748FF63E0D048844209D1C4
:1011900001210805FFF740FF00214FF48010FFF701
:1011A0003BFF56E0CA48844209D101214805FFF7B8
:1011B00033FF00214FF40010FFF72EFF49E0C54830
:1011C000844208D101214020FFF733FF0021402055
:1011D000FFF72FFF3DE0C048844208D10121802065
:1011E000FFF727FF00218020FFF723FF31E0BB48F6
:1011F000844208D101218015FFF71BFF0021A015B3
:10120000FFF717FF25E0B648844209D10121080401
:10121000FFF702FF00214FF48030FFF7FDFE18E0DA
:10122000B048844209D101214804FFF7F5FE0021AE
:101230004FF40030FFF7F0FE0BE0AB48844208D1DA
:1012400001218804FFF7E8FE00214FF48020FFF71A
:10125000E3FE10BD00220288944B98420ED0994BB9
:1012600098420BD0B0F1804F08D0914B984205D0F6
:10127000904B984202D0904B984204D14FF68F7316
:101280001A404B881A438D4B984207D08C4B98429A
:1012900004D04FF6FF431A40CB881A4302808B8854
:1012A00083850B880385814B98420BD0854B9842F0
:1012B00008D08B4B984205D08A4B984202D08A4B7B
:1012C000984201D10B7A038601238382704770B55F
:1012D000002400220023058C4FF6FE76354005845D
:1012E000028C8388048B4FF68F752C40B51E2C40E2
:1012F0000D882C43751E2A400D892A434D882A43A8
:101300006A4DA8420BD06F4DA84208D0744DA84238
:1013100005D0744DA84202D0734DA84213D14FF6A8
:10132000F7752A404D892A434FF6FB752A408D8870
:101330002A434FF6FF652B404FF6FF552B408D8912
:101340002B43CD892B4383800483CD8885860284FB
:1013500070BD70B5002400220023058C4FF6EF7697
:1013600035400584028C8388048B48F6FF752C4039
:101370004FF6FF452C400D884FF6FF7606EA05250F
:101380002C434FF6DF752A400D8906EA05152A43DE
:101390004D8806EA05152A43444DA84202D0494D1E
:1013A000A8421DD14FF67F752A404D894FF6FF7632
:1013B00006EA05152A434FF6BF752A408D8806EACE
:1013C00005152A434FF6FF352B404FF2FF752B4092
:1013D0008D8906EA85052B43CD8906EA85052B43D1
:1013E00083800483CD880587028470BD70B5002496
:1013F00000220023058C4FF6FF6635400584028CE1
:101400008388848B4FF68F752C404FF6FC752C40EB
:101410000D882C434FF6FF552A400D894FF6FF7675
:1014200006EA05252A434D8806EA05252A431F4D6D
:10143000A84202D0234DA8421DD14FF2FF752A4089
:101440004D894FF6FF7606EA05252A434FF6FF350C
:101450002A408D8806EA05252A434EF6FF752B4063
:101460004DF6FF752B408D8906EA05152B43CD8976
:1014700006EA05152B4383808483CD888587028403
:1014800070BD70B5002200230024058C4EF6FF7657
:1014900035400584038C8488828B48F6FF752A408A
:1014A0004FF6FF452A400D8820E00000002C014047
:1014B0000004004000080040000C00400010004004
:1014C0000014004000340140004C01400050014035
:1014D0000054014000180040001C00400020004063
:1014E0000040014000440140004801404FF6FF76B3
:1014F00006EA05252A434DF6FF752B400D8906EABD
:1015000005352B434D8806EA05352B43FA4DA84295
:1015100002D0FA4DA84208D14BF6FF752C408D89B8
:101520004FF6FF7606EA85152C4384808283CD88AA
:10153000A0F84050038470BD828B4FF2FF331A40F5
:101540008283828B4FF6FF7303EA01231A4382835F
:101550007047F0B50C461546002200210026078C86
:101560004EF6FF7C07EA0C070784828B018C4FF64E
:10157000FF7707EA043640F6FF473A404FF6FF7719
:1015800007EA05273A434FF6FF7707EA03373A435E
:10159000D94FB8420ED0D94FB8420BD0B0F1804FDE
:1015A00008D0D74FB84205D0D64FB84202D0D64F58
:1015B000B84206D14DF6FF77394046F4805739439B
:1015C00005E047F6FF57394044F48057394382839A
:1015D0000184F0BD828B4FF6F3731A408283828BB5
:1015E0000A4382837047F0B50C461546002200215D
:1015F0000026078C4FF6FF6C07EA0C070784828BE6
:10160000018C4FF6FF7707EA04264FF60C773A4035
:101610004FF6FF7707EA03172F433A43B64FB84216
:101620000ED0B64FB8420BD0B0F1804F08D0B44FB7
:10163000B84205D0B34FB84202D0B34FB84206D13A
:101640004FF6FF57394046F48077394305E04FF2B3
:10165000FF57394044F48077394382830184F0BDD9
:10166000028B4FF2FF331A400283028B4FF6FF7357
:1016700003EA01231A4302837047F0B50C4615466E
:10168000002200210026078C4FF6EF7C07EA0C07AA
:101690000784028B018C4FF6FF7707EA041640F6A9
:1016A000FF473A404FF6FF7707EA03373A434FF6D2
:1016B000FF7707EA05273A438F4FB8420ED08F4F86
:1016C000B8420BD0B0F1804F08D08D4FB84205D052
:1016D0008C4FB84202D08C4FB84206D14FF6DF771C
:1016E000394046F01007394305E04FF65F7739403F
:1016F00044F01007394302830184F0BD028B4FF69A
:10170000F3731A400283028B0A4302837047F0B5D9
:101710000C46154600220021068C4FF6FE773E400F
:101720000684028B018C4FF60C7632407E1C06EA52
:1017300003162E433243704EB0420ED06F4EB0426D
:101740000BD0B0F1804F08D06D4EB04205D06D4E39
:10175000B04202D06C4EB04206D14FF6FD76314019
:1017600044F00106314305E04FF6F576314044F090
:101770000106314302830184F0BD70B505460C4675
:101780005D4885420ED05D4885420BD0B5F1804F53
:1017900008D05B48854205D05A48854202D05A4855
:1017A000854200D100E000BF208850B92389A2887B
:1017B00061882846FFF7ABFFE1882846FFF79EFFC8
:1017C00025E0208804280AD12389A2886188284638
:1017D000FFF753FFE1882846FFF742FF17E0208814
:1017E00008280AD12389A28861882846FFF7FBFED2
:1017F000E1882846FFF7EEFE09E02389A288618888
:101800002846FFF7A6FEE1882846FFF795FE70BD43
:101810002DE9F04105460C4600260127608808B9ED
:10182000022600E00026A088012801D1022700E05E
:1018300001272088A0B92389A28861882846FFF75C
:1018400066FFE1882846FFF759FF23893A4631466B
:101850002846FFF712FFE1882846FFF701FF13E053
:101860002389A28861882846FFF707FFE188284678
:10187000FFF7F6FE23893A4631462846FFF747FF31
:10188000E1882846FFF73AFFBDE8F0810A884B88D7
:101890001A438B881A43CB881A430B891A434B8906
:1018A0001A438B891A43A0F8442070474FF6FF7102
:1018B000818000210180C180418001727047002138
:1018C000018041808180C180018141818181C1810C
:1018D0007047002101804180012181800021C18069
:1018E000018170470021018041808180C180018198
:1018F0004181818170470000002C0140003401408B
:101900000004004000080040000C004021B10288A3
:1019100042F00102028004E002884FF6FE731A4092
:101920000280704731B1B0F8442042F40042A0F880
:10193000442005E0B0F84420C2F30E02A0F8442091
:1019400070471AB183890B43838102E083898B43FB
:10195000838170478182704741EA0203A0F84830D2
:1019600070471AB183890B43838102E083898B43DB
:101970008381704701894FF6F872114001817047E9
:101980000A46002101894FF68F73194011430181E6
:10199000704730B504460D4629462046FFF7F0FF54
:1019A000208940F00700208130BD2DE9F041044638
:1019B0000D4616461F46602D06D13B460122314694
:1019C0002046FFF75AFE05E03B46012231462046FD
:1019D000FFF79DFE29462046FFF7D2FF208940F001
:1019E00007002081BDE8F08130B50C460021018957
:1019F000C9B24FF6FF7505EA032515432543294370
:101A0000018130BD2DE9F04105460E461746984646
:101A1000002443463A4631462846FFF7E5FF2C8925
:101A20004FF6F870044044F007044FF68F700440FE
:101A300044F070042C81BDE8F081F0B504460D46F9
:101A400016461F463B46324629462046FFF7CCFF46
:101A5000208940F480402081F0BD0185828270475A
:101A60000A46002101884FF68F7319401143018007
:101A70007047F0B50C4615461E4600210022002393
:101A80000189028B038C4FF6F877394021434FF6DA
:101A9000FC473A4040F201173A434FF6DD773B40AE
:101AA0004FF6FF7707EA06172F433B430181028376
:101AB0000384F0BD0A460021018B4FF68F73194055
:101AC0001143018370470A460021018B48F6FF73DA
:101AD00019404FF6FF7303EA02231943018370474D
:101AE0000A460021818B4FF68F7319401143818381
:101AF00070470A460021818B48F6FF7319404FF664
:101B0000FF7303EA022319438183704721B10288DE
:101B100042F08002028004E002884FF67F731A4090
:101B20000280704721B1828842F00402828004E082
:101B300082884FF6FB731A408280704721B18288F9
:101B400042F00802828004E082884FF6F7731A4060
:101B50008280704721B1828842F00102828004E0D5
:101B600082884FF6FE731A40828070470A46002131
:101B7000018B4FF6F77319401143018370470A46F2
:101B80000021018B4FF2FF7319404FF6FF7303EAF8
:101B900002231943018370470A460021818B4FF6C7
:101BA000F77319401143818370470A460021818BE6
:101BB0004FF2FF7319404FF6FF7303EA02231943F4
:101BC000818370470A460021018B4FF6FB73194051
:101BD0001143018370470A460021018B4FF6FF3302
:101BE00019404FF6FF7303EA02231943018370473C
:101BF0000A460021818B4FF6FB7319401143818304
:101C000070470A460021818B4FF6FF3319404FF68B
:101C1000FF7303EA02231943818370470A460021B8
:101C2000018B4FF67F7319401143018370470A46B9
:101C30000021018BC1F30E014FF6FF7303EA02236B
:101C40001943018370470A460021818B4FF67F7349
:101C500019401143818370470A460021818BC1F3EB
:101C60000E014FF6FF7303EA022319438183704785
:101C70000A460021018C4FF6FD731940114301847F
:101C800070470A460021018C4FF6F7731940114343
:101C9000018470470A460021018C4FF6DF7319401A
:101CA0004FF6FF7303EA02131943018470470A4693
:101CB0000021018C4FF67F7319404FF6FF7303EA42
:101CC00002131943018470470A460021018C4FF624
:101CD000FF5319404FF6FF7303EA022319430184AF
:101CE00070470A460021018C4FF2FF7319404FF6EE
:101CF000FF7303EA02231943018470470A46002157
:101D0000018C4DF6FF7319404FF6FF7303EA02335F
:101D100019430184704730B5002301248C40A3B2DD
:101D2000048C9C430484048C02FA01F5ADB22C436C
:101D3000048430BD30B5002304248C40A3B2048C4D
:101D40009C430484048C02FA01F5ADB22C43048454
:101D500030BD70B503460020002418461830012518
:101D60008D40ACB21D8CA5431D8409B1082909D151
:101D700000EB6100056825F07005056005681543F6
:101D800005600EE00D1FC5F34E052844056825F4D7
:101D9000E045056005684FF6FF7606EA0226354302
:101DA000056070BD21B1028842F00202028004E0A9
:101DB00002884FF6FD731A400280704721B10288F5
:101DC00042F00402028004E002884FF6FB731A40DE
:101DD0000280704721B1828842F08002828004E054
:101DE00082884FF67F731A408280704702884FF6D0
:101DF000F7731A40028002880A4302807047828883
:101E00004FF68F731A40828082880A43828070471F
:101E100002894FF6F8731A40028102890A4302814F
:101E2000704702894FF67F731A40028102890A4384
:101E30000281704781847047818570478186704731
:101E40000187704781877047A0F84010704702886B
:101E50004FF6FF431A40028002880A43028070470F
:101E60000146888E70470146088F70470146888F6B
:101E700070470146B1F8400070470146888C7047B2
:101E80000146088D704702460020138A0B400BB1B3
:101E9000012000E000207047CA430282704730B53D
:101EA0000246002000230024158A05EA01039589D3
:101EB00005EA010413B10CB1012000E0002030BD9F
:101EC000CA4302827047000010B50446FB488442B2
:101ED00009D101218803FFF79FF800214FF48040CA
:101EE000FFF79AF832E0F648844209D1012148040C
:101EF000FFF79FF800214FF40030FFF79AF825E034
:101F0000F048844209D101218804FFF792F80021AA
:101F10004FF48020FFF78DF818E0EB48844209D198
:101F20000121C804FFF785F800214FF40020FFF7D6
:101F300080F80BE0E548844208D101210805FFF74D
:101F400078F800214FF48010FFF773F810BD2DE9E9
:101F5000F04786B005460E460024A24600BFA146C3
:101F60000027B08900B100BF2F462C8A4CF6FF70C5
:101F70000440F08804432C82AC894EF6F3100440F0
:101F8000B08831890843718908430443AC81AC8A25
:101F90004FF6FF400440B0890443AC8201A8FEF72D
:101FA000B4FFC648874202D1DDF810A001E0DDF899
:101FB0000CA0A88900F4004040B10AEBCA0000EB75
:101FC0000A1031684900B0FBF1F807E00AEBCA00DB
:101FD00000EB0A1031688900B0FBF1F86420B8FB0F
:101FE000F0F004012009642101FB1089A88900F4A4
:101FF000004040B1322000EBC900B0FBF1F000F02E
:102000000700044308E0322000EB09106421B0FB14
:10201000F1F000F00F0004432C8106B0BDE8F0871A
:102020004FF41651016000218180C18001810C2193
:10203000418100218181704710B502460020108A3D
:102040004FF2FF0318400B884C8823438C882343AE
:10205000CC8823431843108210BD002101804180A9
:102060008180C180704721B1828942F4005282810F
:1020700004E082894DF6FF731A4082817047F0B503
:102080000346002400260025002040F66A17B942C6
:1020900000D100BF1846C1F3421401F01F0601270A
:1020A00007FA06F5012C01D10C3004E0022C01D115
:1020B000103000E014301AB107682F43076002E0C7
:1020C0000768AF430760F0BD1AB1838A0B43838270
:1020D00002E0838A8B4383827047028A4FF6F07353
:1020E0001A400282028A0A430282704782894FF2B2
:1020F000FF731A40828182890A438281704721B12D
:10210000828942F00202828104E082894FF6FD73E7
:102110001A4082817047028A4FF6DF731A400282AA
:10212000028A0A430282704721B1028A42F4804245
:10213000028204E0028A4BF6FF731A400282704763
:10214000C1F308028280704701468888C0F3080006
:102150007047818941F0010181817047028BD2B2C1
:102160000283028B42EA012202837047028B02F44F
:102170007F420283028B0A430283704721B1828A25
:1021800042F02002828204E0828A4FF6DF731A4016
:102190008282704721B1828A42F01002828204E07A
:1021A000828A4FF6EF731A408282704721B1828A89
:1021B00042F00802828204E0828A4FF6F7731A40E6
:1021C0008282704721B1828942F40042828103E019
:1021D0008289C2F30E028281704721B1828A42F461
:1021E0000062828204E0828A4FF2FF731A40828288
:1021F0007047828A4FF6FB731A408282828A0A43B2
:102200008282704721B1828A42F00202828204E017
:10221000828A4FF6FD731A40828270470246002080
:10222000B1F5007F00D100BF13880B400BB1012036
:1022300000E00020704701F40072B2F5007F00D189
:1022400000BFCA430280704770B5024600240023D5
:102250000025002040F66A16B14200D100BFC1F34C
:10226000421501F01F03012606FA03F3012D02D1E6
:102270009689334006E0022D02D1168A334001E0F0
:10228000968A33400C12012606FA04F4168834406C
:1022900013B10CB1012000E0002070BD10B5002288
:1022A000002340F66A14A14200D100BF0A120124A3
:1022B0009440A3B2DC43048010BD0000003801400C
:1022C0000044004000480040004C004000500040E6
:1022D00010B56FF00400FEF722F92E4800682E4971
:1022E000B0FBF1F02D4908700846007800EB400182
:1022F000C1EBC0104FF6FF7101EAC0002849088009
:1023000010BD0146254A12784A434FF0E0235A6136
:1023100000229A611A46126942F001021A6100BF56
:102320004FF0E022106900F001021AB100F480328F
:10233000002AF5D04FF0E022126922F001024FF09E
:10234000E0231A6100229A6170470146144A1288FC
:102350004A434FF0E0235A6100229A611A461269FB
:1023600042F001021A6100BF4FF0E022106900F054
:1023700001021AB100F48032002AF5D04FF0E022B9
:10238000126922F001024FF0E0231A6100229A61E3
:10239000704700000000002000127A002800002092
:1023A0002A000020A34A0A400243A34B1A60704748
:1023B0000146072323EA010212029F4B1B1D1868E6
:1023C0004FF6FF0318409D4B184310439A4B1B1DBB
:1023D000186070472DE9F0410746884614461D46AF
:1023E0002846FFF7E5FFC5F1040007FA00F60F20C5
:1023F000284100EA0800064306F00F06E21704EB46
:10240000D2625211920002F1E022D2F8002121465C
:10241000E31704EBD3635B11A4EB431C012303FA22
:102420000CF31A432046E31704EBD3635B119B00C4
:1024300003F1E023C3F800218148005D40EA061063
:102440007F490855BDE8F08170B504460B46CE17AC
:1024500001EB9676C6F38700CE1701EB9676B610A1
:10246000A1EB8606B606350E764B9B6943F0010359
:10247000744EB3614FEAB63353F820300F26AE40A6
:10248000B343714E46F82030334653F8203004FAF7
:1024900005F61E436C4B43F820606C4B1B6801260D
:1024A0008E403343694E336002F0010343B1674B02
:1024B0000C331B6801268E403343644E0C36336068
:1024C00002F0020343B1614B08331E6801238B40C5
:1024D0001E435E4B08331E6070BD00B50020594995
:1024E0000861C8601420486100208861C8610846FE
:1024F000006840F001000860084640685449084000
:102500005049486008460068524908404D490860F3
:102510000846006820F4802008600846406820F4DF
:10252000FE0048600020886000214FF00060FFF747
:1025300039FF00BD10B540480830006840F0040085
:102540003D49083108603F48C06940F080503D492E
:10255000C8614148406840F480703F49486008467F
:10256000006840F0040008600846006840F002007F
:102570000860FDF72FFE10BD3048001D2E49091DD3
:1025800008607047014649062E4A926942F00102EE
:102590002C4B9A612C4A083A526822F0E0622A4B8E
:1025A000083B5A601A4652680A435A60704730B571
:1025B00004460025FFF791FF2248006840F4803070
:1025C0002049086000BF1F480068400C0028FAD06E
:1025D0004FF480601B494860A01EC4B208464068A2
:1025E00040EA844048600846406840F480304860D3
:1025F0001A48006840F03200184908601148006825
:1026000040F080700F49086000BF0E480068400E1F
:102610000028FAD00B48406840F0020009494860A1
:1026200005E008484068C0F3870505F00305022D62
:10263000F7D130BD80FFFF1F08ED00E00000FA0574
:1026400000E400E0001002400800014000040140E6
:102650000000FFF8FFFFF6FE00700040002002407F
:1026600000BF7047024600BF2848008800F04000C5
:102670000028F9D0D0B2254B1B1D188000207047D0
:1026800010B586B00446012144F20400FEF7AAFC0E
:102690004FF40070ADF8140003208DF816001820D8
:1026A0008DF8170005A91A48FEF7E0F94FF480608D
:1026B000ADF8140004208DF8170005A91448FEF7A2
:1026C000D5F925208DF8000001208DF801008DF846
:1026D00002008DF803006846FDF7D7FE0194002044
:1026E000ADF80800ADF80A00ADF80C00ADF8100028
:1026F0000C20ADF80E0001A90648FFF728FC0121C7
:102700000448FFF7B0FC06B010BD000000480040D0
:10271000000801400038014008B501210420FEF7FF
:1027200061FC4FF48070ADF8000010208DF80300BC
:1027300003208DF8020069460C48FEF797F908BDA2
:1027400018B901210A4A11600FE00A490968491CB9
:10275000084A1160814208D105490968C943064AFF
:10276000C2F8A0110021034A11607047000801401F
:10277000A0012142300000200000214208B50220C3
:10278000FFF700FF0120FFF7FDFE01210420FEF707
:1027900029FC4FF40040ADF8000010208DF8030034
:1027A00002208DF8020069461148FEF75FF94FF4E8
:1027B00000410F48FEF709FA08BD28B94FF400415F
:1027C0000B4A1432116011E00A490968491C094A90
:1027D000116081420ADB06490C31096881F400412D
:1027E000034A0C3211600021024A11607047000058
:1027F000000801403400002008B501210420FEF744
:10280000F1FB0120ADF8000004208DF803006946BB
:102810005848FEF72BF90220ADF8000004208DF88F
:10282000030069465348FEF721F908BD01465248A6
:10283000006828B951480088401C504A108002E0C6
:1028400000204E4A10804C48006828B94C48007857
:1028500010B901204A4A10704A480078B0B9484877
:102860000078012807D148480078401C464A10707B
:102870000120444A107044480078022806D1002004
:10288000414A1070414A1080022070473A4800685F
:10289000012804D100203A4A10703A4A10703A4890
:1028A000007801281CD139480088401C374A108024
:1028B0001046008888420ADD30480088884206DADF
:1028C0000020314A1070314A10800120DDE72B488A
:1028D0000088884204DD00202B4A10702B4A1080AB
:1028E0000020D2E72A48006840B92348006828B988
:1028F00028480068401C2749086002E0002025495C
:10290000086024480068C82807DD012020490860C5
:10291000002020490860012070471D4800680128F8
:1029200002D100201A4908600020F5E710B53220D6
:10293000FFF77CFF0346FFF7D5FF0446012B0ED1BE
:102940001548007840B900201449086014490870FF
:1029500001201149087002E000200F490870012C85
:1029600006D100200C4908700C4908600C49087019
:1029700010BD000000080140000121423E0000207F
:1029800038000020390000203A0000203C000020E0
:102990004400002040000020880000208C0000201F
:1029A0009000002010B50A461AB10123FE4C2360A6
:1029B00002E00023FC4C2360002115E00023FB4CC7
:1029C000236000F0800323B10123F74C0834236017
:1029D00003E00023F44C083423600123F34C23600C
:1029E0004306180E4B1CD9B20829E7DB0123EE4C35
:1029F000236010BD30B500241CE004F1B001C8B262
:102A00000021FFF7CFFF00210846FFF7CBFF002191
:102A10001020FFF7C7FF002508E0E54901EBC501DD
:102A2000085D0121FFF7BEFF681CC5B2802DF4DBF5
:102A3000601CC4B2082CE0DB30BD00B500218D2045
:102A4000FFF7B0FF00211420FFF7ACFF0021AF20FB
:102A5000FFF7A8FF00BD00B500218D20FFF7A2FF02
:102A600000211020FFF79EFF0021AE20FFF79AFF04
:102A700000BD30B500240CE0002506E00020CC4964
:102A800001EBC5010855681CC5B2802DF6DB601C42
:102A9000C4B2082CF0DBFFF7ADFF30BDF0B5144633
:102AA00000267F2801DC3F2900DDF0BD0B46CF1753
:102AB00001EB5777FF10C7F10707FAB2CF1701EB09
:102AC0005777FF10A1EBC707FDB2C5F10707012338
:102AD000BB40DEB24CB1B64B03EBC0039B5C33434F
:102AE000B34F07EBC007BB5408E0B14B03EBC00387
:102AF0009B5CB343AE4F07EBC007BB5400BFD4E7AA
:102B00002DE9F04F80460C4615461E46A346A5F11A
:102B10002000C5B200273EE00C2E07D105EB450092
:102B2000A44901EB800010F8079004E0A24800EBF4
:102B3000051010F807904FF0000A26E009F0800019
:102B400028B121464046099AFFF7A8FF09E00998F5
:102B500008B9012000E00020024621464046FFF768
:102B60009DFF4FEA49604FEA1069601CC4B2A4EBB4
:102B70000B00B04205D15C4608F1010000F0FF08EF
:102B800006E00AF1010000F0FF0ABAF1080FD5DBF8
:102B900000BF781CC7B2B742BEDBBDE8F08F10B5EE
:102BA0000246012000E050430B1EA1F10104E1B2F6
:102BB000F9D110BD2DE9FF4F81B0074691461E4661
:102BC0000E9D4FF0000A002439E0301B401EC1B2B8
:102BD0000A20FFF7E4FFB9FBF0F00A21B0FBF1F2A5
:102BE00001FB1208BAF1000F16D1701EA04213DDCE
:102BF000B8F1000F0ED10120AB4605EBDB71491097
:102C000001FB04710090C8B22B4620220299FFF705
:102C100077FF12E04FF0010A0120AB4605EBDB71B4
:102C2000491001FB04710090C8B208F13001CAB22A
:102C30002B460299FFF764FF00BF601CC4B2B44288
:102C4000C3DB05B0BDE8F08F78B505460E461446E7
:102C500018E07A2D03DD002506F11000C6B23A2EE9
:102C600004DD002005460646FFF703FF0120009023
:102C700022780C2331462846FFF742FF05F1080071
:102C8000C5B2641C20780028E3D178BD08B50220C5
:102C9000FFF778FC0120FFF775FC01211820FEF7F3
:102CA000A1F901210820FEF79DF94FF48040ADF80D
:102CB000000010208DF8030003208DF80200694603
:102CC0003E48FDF7D3FE2020ADF8000010208DF81F
:102CD000030003208DF8020069463948FDF7C6FE5F
:102CE0001020ADF800008DF8030003208DF80200DD
:102CF00069463348FDF7BAFE0820ADF80000102001
:102D00008DF8030003208DF8020069462C48FDF77A
:102D1000ADFE00202449091D08606420FFF715FB63
:102D200001202849C1F890010021AE20FFF73AFEAA
:102D30000021D520FFF736FE00215020FFF732FE9C
:102D40000021A820FFF72EFE00213F20FFF72AFEDA
:102D50000021D320FFF726FE00210846FFF722FEC0
:102D600000214020FFF71EFE00218D20FFF71AFEF4
:102D700000211420FFF716FE00212020FFF712FE8D
:102D800000210220FFF70EFE0021A120FFF70AFE1E
:102D90000021C020FFF706FE0021DA20FFF702FE27
:102DA0000021122010E000008C812142B801224253
:102DB000E8000020AE660008226B00080010014009
:102DC000000C014000802142FFF7ECFD0021812032
:102DD000FFF7E8FD0021EF20FFF7E4FD0021D920F7
:102DE000FFF7E0FD0021F120FFF7DCFD0021DB20F3
:102DF000FFF7D8FD00213020FFF7D4FD0021A420EB
:102E0000FFF7D0FD0021A620FFF7CCFD0021AF2069
:102E1000FFF7C8FDFFF72DFE08BD10B50021002209
:102E2000C306190E0CE0002206E00023074C04EB59
:102E3000C2046354531CDAB2802AF6DB4B1CD9B2AD
:102E4000431CB1EBC30FEEDB10BD0000E800002017
:102E500000B587B0012140F20440FEF7C3F84FF4FB
:102E60000040FEF723F80620ADF8040000208DF89E
:102E7000070001A94E48FDF7F9FD4E48FDF76EFB2E
:102E8000002002908DF80C008DF80D004FF46020AA
:102E900004900020059001208DF8180002A94548F3
:102EA000FDF783FB01214348FDF7ABFB4148FDF7EC
:102EB000CAFB00BF3F48FDF7CBFB0028FAD13D48D5
:102EC000FDF7D0FB00BF3B48FDF7D1FB0028FAD14E
:102ED00007B000BD10B5044607230122214635483E
:102EE000FDF7FBFB01213348FDF7CBFB00BF0221BF
:102EF0003048FDF737FD0028F9D02E48FDF754FC87
:102F000010BD2DE9F04107460C460025002608E0DB
:102F10003846FFF7DFFF05440120FFF7F2F9701C88
:102F2000C6B2A642F4DBB5FBF4F080B2BDE8F08196
:102F30002DE9F04F85B00120FFF7CCFF019002F0A2
:102F400049FC4FF066321C4BCDE9020102F092FCC5
:102F500080460022194B02F08DFC06460022184BD9
:102F600002F088FC04460022164B02F067FA824603
:102F700002F0BCFB0490049805B0BDE8F08F10B5DA
:102F800004460723012221460F48FDF7A6FB012135
:102F90000D48FDF776FB00BF00BF02210A48FDF790
:102FA000E1FC0028F9D00848FDF7FEFB10BD000049
:102FB000000801400028014066660A4000002640E3
:102FC000000059400000B0400024014008B5012134
:102FD0000420FEF707F84020ADF8000018208DF817
:102FE000030003208DF8020069465648FDF73EFDB8
:102FF00001210420FDF7F6FF8020ADF80000182025
:103000008DF8030003208DF8020069464D48FDF756
:103010002DFD01210820FDF7E5FF0120ADF800009E
:1030200018208DF8030003208DF8020069464648F9
:10303000FDF71CFD01210820FDF7D4FF0220ADF8AB
:10304000000018208DF8030003208DF80200694667
:103050003D48FDF70BFD08BD30B587B005460C4671
:1030600001210220FDF7CBFFADF81450ADF8104060
:103070000020ADF81200ADF8160004A93348FEF7A1
:10308000E9F86020ADF800000120ADF80200002052
:10309000ADF80600ADF8080069462C48FEF717F9B0
:1030A0006020ADF800000120ADF802000020ADF86E
:1030B0000600ADF8080069462448FEF74AF960208A
:1030C000ADF800000120ADF802000020ADF80600C8
:1030D000ADF8080069461D48FEF788F96020ADF894
:1030E00000000120ADF802000020ADF80600ADF8A8
:1030F000080069461548FEF7C4F908211348FEF791
:1031000035FD08211148FEF73AFD08210F48FEF76A
:1031100043FD08210D48FEF748FD01210B48FEF74D
:10312000F5FC01210948FEF7F1FB07B030BD70B591
:1031300004460D46FFF74AFF29462046FFF78CFF5D
:1031400070BD000000080140000C01400004004078
:1031500008B501211820FDF745FFC020ADF800009B
:1031600004208DF8030069466A48FDF77FFCC02003
:10317000ADF8000004208DF8030069466648FDF7AD
:1031800075FC08BD08B51E208DF8000001208DF8E3
:1031900003008DF8010003208DF802006846FDF75A
:1031A00074F92C208DF8000001208DF803008DF8B3
:1031B000010003208DF802006846FDF766F908BD9E
:1031C00000B587B001210420FDF719FF0121480354
:1031D000FDF708FF04A8FEF769FB0020ADF810001A
:1031E0004FF6FF70ADF814000020ADF81600ADF8F2
:1031F000120004A94948FEF72DF804A94848FEF733
:1032000029F800231A4603214448FEF732FC01A89E
:10321000FEF75FFB0A20ADF80C0001A93F48FEF75E
:10322000ACFA01213D48FEF737FE012211463B482A
:10323000FEF787FB01213948FEF768FB00231A4699
:1032400003213748FEF715FC01A8FEF742FB0A20D0
:10325000ADF80C0001A93248FEF78FFA0121304881
:10326000FEF71AFE012211462D48FEF76AFB0121E6
:103270002B48FEF74BFB07B000BD10B5FFF768FF0A
:10328000FFF780FFFFF79CFF10BD0146022906D023
:1032900003290DD0042912D0082922D118E04FF0BB
:1032A0008042928C10B200224FF080439A841AE040
:1032B0001C4A128810B200221A4B1A8013E0174AD7
:1032C0002432128810B20022144B24331A800AE0F0
:1032D000134A2432128810B20022114B24331A8070
:1032E00001E0002000BF00BF704710B501210B486E
:1032F000FEF7C9FD01210948FEF7E2FD10BD10B53A
:1033000001210748FEF7BFFD01210548FEF7D8FD62
:1033100010BD0000000C01400010014000080040FA
:10332000003401402404004010B586B00446012159
:103330000820FDF757FE01218804FDF760FE4FF4D9
:103340008060ADF8140003208DF8160018208DF869
:10335000170005A9B648FDF789FB4FF40060ADF8EA
:10336000140004208DF8170005A9B148FDF77EFB75
:1033700027208DF8000001208DF801008DF8020053
:103380008DF803006846FDF780F801940020ADF841
:103390000800ADF80A00ADF80C00ADF810000C20E4
:1033A000ADF80E0001A9A348FEF7D1FD012240F2BD
:1033B0002551A048FEF763FE01219E48FEF753FE0B
:1033C00006B010BD2DE9FF5F40F225519948FEF788
:1033D0003BFF002879D09748FEF7B6FE9649086073
:1033E0000846007895490870084600787B2802D185
:1033F000012093490870914800787D2802D102206D
:103400008F4908708E48007801280AD18B480078CF
:103410008C498D4A127888548B480078401C8A4920
:1034200008708748007802284FD18648C078502815
:1034300003D10120854908707AE08248407823282A
:1034400076D0814800788249087034E07E49097856
:103450007F4A1278881A02F0A6F9804642460B4647
:1034600000207C4901F0EAF904460D4678490978C4
:10347000491E744A515CA1F1300002F094F90646ED
:1034800022462B4602F0F6F982468B4672480068C7
:1034900002F000FD52465B46CDE9000101F012FF4B
:1034A000CDE9020101F0DCFE6B4908606848007854
:1034B000401E67490870664800780428C6DA6148EB
:1034C00040783038092831D200E03EE0DFE800F0F3
:1034D000050A0F14191E23282D005F4800685F4954
:1034E000086024E05C4800685D4908601FE05A48B5
:1034F00000685C4908601AE0574800685A4908604B
:1035000015E0554800685949086010E052480068C5
:10351000574908600BE0504800685649086006E0CB
:103520004D4800685449086001E000E000BF00BF5A
:1035300000204349087044490870454908704649CD
:10354000086032213F4800F0D9FFBDE8FF9F0146E7
:103550002B2913D149480078401C484A107000209C
:10356000474A107047480078401C464A1070464849
:103570000078401C444A1070012070473F48007892
:10358000002852D03E480078401C3D4A10703B480D
:103590000078401E3D4A52F82000394A1278805C7B
:1035A000884212D137480078401C364A10701046C5
:1035B0000078222807D100201070334A10702F4A5B
:1035C00010702F4A10700120D7E72C480078401E59
:1035D0002F4A52F820002A4A1278805C884207D08D
:1035E00026480078012816D1274800780D2812DBDC
:1035F00025480078401C244A1070104600782C287A
:1036000007D1002010701F4A10701C4A10701C4A0D
:1036100010700120B1E700201A4A10701A4A107089
:10362000164A1070164A1070A7E70020A5E70000A0
:10363000000C0140004800404C00002049000020E0
:1036400050000020E8040020510000204800002025
:10365000520000200000244054000020A40000205C
:10366000A8000020800000207000002074000020CE
:10367000780000207C0000208400002059000020F9
:10368000580000205A0000205B0000205C00002051
:10369000680000202DE9F04F89B04FF0000B0020AA
:1036A0000890A248007878B90020A1490860A14993
:1036B0000860A1498860A1498860A1490880A149A2
:1036C000088009B0BDE8F08F9F480068401C9E4903
:1036D00008609B480088B0F5487F04DA9848008865
:1036E000401C9749088099480068C0009849D1F863
:1036F000141140EA81009749D1F8301140EA4100A5
:103700009549096840EA010A8D480088B0F5487F6C
:103710001DDBBAF1000F17D18A480088401C80B227
:1037200088490880142812DD002080490870012093
:103730008A49087000207E4908607E4908607E49F9
:1037400088607E498860BCE700207E490880BAF125
:10375000100F61D2DFE80AF0080C600D6060601A9B
:1037600012326026132B1F3600207149086057E083
:1037700000BF7B4800686E49086051E000BF784890
:10378000006880F000406A49086049E075480068B8
:103790006749086044E07348006880F0004064496D
:1037A00008603DE0704800686149086038E06E4894
:1037B000006880F000405E49086031E000205C490C
:1037C00008602DE000205A490860684800680B280E
:1037D00003D16748006808601DE0644800680D2850
:1037E00006D16348006880F000405149086012E04B
:1037F0005E480068072804D15A4800684C490860B0
:1038000009E05A4800680E2805D15648006880F043
:1038100000404749086003E000204549086000BFB8
:1038200000BFBAF10F0F02D05048C0F800A05148B5
:10383000006802F02FFB04460D463D48006802F088
:1038400029FB21F00041064622462B4601F0D6FF17
:103850002FD24848006802F01DFB80468946344854
:10386000006802F017FB21F0004142464B46CDE9CB
:10387000000101F0E3FDCDE904013F48006802F0DA
:1038800009FBCDE90201DDE9042301F0F3FF06465F
:103890000F463948006802F0FDFA32463B46CDE952
:1038A000060102F00DFA044601F0DAFC2149086035
:1038B00002E000201F4908601D4801681D4800689B
:1038C00002F008FE04462D4902F0FCFC834618482D
:1038D00001681848006802F009FB0446274902F015
:1038E000F1FC08901448C0F808B0144908988860A2
:1038F00000BFE6E608B501210C20FDF773FB302080
:10390000ADF8000028208DF8030069461C48FDF73B
:10391000ADF84FF44050ADF8000028208DF80300BA
:1039200069461848FDF7A2F808BD0000880000208D
:1039300098000020940000201C0500202C05002089
:10394000A0000020A20000208C00002010012142D5
:103950000000214200802142348121429000002059
:1039600070000020740000207C0000209C000020DB
:103970007800002084000020800000206F12833A2D
:1039800000080140000C0140002808DA4FF4E15221
:10399000EE4B1A8000F5E1521B1D1A8008E04FF42F
:1039A000E152EA4B1B1D1A80C0F5E1521B1F1A8021
:1039B000002909DA4FF4E152E44B08331A8001F58B
:1039C000E1521B1D1A8008E04FF4E152DF4B0C332B
:1039D0001A80C1F5E1521B1F1A8070472DE9F04192
:1039E00005460E4614462F463146384602F036FD4F
:1039F00000D237462146384602F030FC00D2274636
:103A00003846BDE8F0812DE9F04704460D462946C9
:103A1000204602F054FDCE49086008460168CD48B2
:103A2000006802F04FFC8046CB480168C848006837
:103A300002F050FD8146C9480168484602F042FC48
:103A40000746414602F052FA0646C548016830462C
:103A500002F04CFAC2490860C249C148006802F04D
:103A6000FDFC02D2BF48BE490860BF49BC4800689F
:103A700002F0F4FB02D2BC48B9490860B4480068BF
:103A8000B5490860B648006802F094FBBDE8F087CD
:103A90002DE9F04704460D462946204602F00FFD69
:103AA000B249086008460168AA48006802F00AFCAA
:103AB0008046AF480168AD48006802F00BFD8146C2
:103AC000A6480168484602F0FDFB0746414602F061
:103AD0000DFA0646A7480168304602F007FAA549E4
:103AE0000860A049A348006802F0B8FC02D29D48D3
:103AF000A04908609C499F48006802F0AFFB02D2D1
:103B000099489C4908609948006899490860994813
:103B1000006802F04FFBBDE8F08710B5964A916847
:103B20001068FFF7B5FF044602F080FB9249486039
:103B3000924A91681068FFF766FF044602F076FB30
:103B40008E4948608C498E4A48688E49FFF746FF87
:103B50008949486089498A4A48688A49FFF73EFF8F
:103B60008649486010BD10B5002487498748006821
:103B700002F074FC03D28648006800B90124204694
:103B800010BD2DE9F0410420FFF77FFB814908605B
:103B90000820FFF77AFB7F494860086802F046FB7F
:103BA00005467C494968484202F040FB06467A498E
:103BB000284602F087FB0746784902F083FB04465B
:103BC000774902F001FA6C4908607349304602F007
:103BD00079FB0746714902F075FB0446704902F013
:103BE000F3F966490860BDE8F08170B501216D48C0
:103BF000FEF755F900285CD001216A48FEF760F90C
:103C000069480068401C68490860086800EBD0718A
:103C10004910A0EB410169BB0020634908606420A2
:103C2000FEF78EFDFEF782FEFFF782F9054602F0F1
:103C3000FDFA04465D480168204602F057F95B49E9
:103C400008604FF07E515A48006802F04FF9584919
:103C500004460860574902F079FA0BD15549534898
:103C6000006802F0B1F94949086000204F49086036
:103C70004F490860FFF785FFFFF70CFDFFF773FF63
:103C800010B1FFF74AFF04E000203B4948603B4980
:103C900048603A49486802F08DFA0646364840685E
:103CA00080F00045284602F085FA04463146FFF7C9
:103CB0006BFE70BD1FB501211020FDF7A0F9182083
:103CC000ADF8080041F61F40ADF804000020ADF843
:103CD0000A00ADF8060001A93248FDF7BBFA01223F
:103CE00011463048FDF72DFE36208DF800000120EA
:103CF0008DF801008DF802008DF803006846FCF78E
:103D0000C4FB01212748FDF701FE1FBD70B5064623
:103D10000D4614462946304602F0A0FA01D2284644
:103D200070BD2146304602F099FB01D22046F7E7EC
:103D30003046F5E703468B4201DA08467047934266
:103D400001DD1046FAE71846F8E7000034040040A9
:103D5000D8000020A8000020E0000020A4000020DF
:103D6000DC0000200000E1450000E1C5CC0000209F
:103D7000D4000020D00000201C0500202C050020CD
:103D800000C0DAC500C0DA4500002F44B8000020AA
:103D900004012142BC0000200000C84337FB133E51
:103DA0000000824400100040AC000020B40000205D
:103DB000B00000200000C842F8B54FF48061FE4812
:103DC00000F09CFBFDA200210846FEF73DFFFD48E8
:103DD000006828B1FCA200213220FEF735FF04E084
:103DE000FAA200213220FEF72FFFF648001D0068DE
:103DF00028B1F5A200214120FEF726FF04E0F3A23E
:103E000000214120FEF720FFF148006828B1EEA212
:103E100000215020FEF718FF04E0ECA20021502002
:103E2000FEF712FFEA48001D006828B1E6A2002153
:103E30005F20FEF709FF04E0E4A200215F20FEF707
:103E400003FFE4A20A210020FEF7FEFEE24800681C
:103E500002F0CCF904460C20042322460A210090EB
:103E60001420FEF7A7FEDDA20A213C20FEF7ECFE9F
:103E70000021DB48006802F0F1F905D2D9A20A213D
:103E80005020FEF7E1FE04E0D7A20A215020FEF701
:103E9000DBFED648006801F0FDFF21F00041054639
:103EA00001F054FC04460C20042322460A21009011
:103EB0005A20FEF77FFECE48006802F097F90446CC
:103EC0000C2003232246142100900020FEF772FEEE
:103ED000C848006802F08AF904460C2003232246F1
:103EE000142100902820FEF765FEC348006802F008
:103EF0007DF904460C200323224614210090502013
:103F0000FEF758FEBD48006802F070F904460C2028
:103F100003232246142100906420FEF74BFEB8A232
:103F20001E210020FEF790FEB7498868002102F0AC
:103F300095F918D2ABA21E210846FEF785FEB248BD
:103F4000806880F00046B149304602F0BBF9054672
:103F500002F04CF904460C20042322461E21009056
:103F60002420FEF727FEA8498868002102F076FA8F
:103F700015D89DA21E210846FEF766FEA249886854
:103F8000A24902F09FF9054602F030F904460C20E0
:103F9000042322461E2100902420FEF70BFE9CA243
:103FA0001E214220FEF750FE97490868002102F0CA
:103FB00055F918D28BA21E215E20FEF745FE9248CD
:103FC000006880F000469149304602F07BF90546D2
:103FD00002F00CF904460C20042322461E21009016
:103FE0006820FEF7E7FD88490868002102F036FAEC
:103FF00015D87DA21E215E20FEF726FE82490868A4
:10400000824902F05FF9054602F0F0F804460C2000
:10401000042322461E2100906820FEF7CBFD7EA2DD
:1040200028210020FEF710FE7D498868002102F05B
:1040300015F918D26BA228211E20FEF705FE78483C
:10404000806880F000467149304602F03BF9054631
:1040500002F0CCF804460C200423224628210090CC
:104060002420FEF7A7FD6E498868002102F0F6F9CA
:1040700015D85DA228211E20FEF7E6FD6849886854
:10408000624902F01FF9054602F0B0F804460C2020
:1040900004232246282100902420FEF78BFD61A2F4
:1040A00028214220FEF7D0FD5D490868002102F07A
:1040B000D5F818D24BA228215E20FEF7C5FD58483E
:1040C000006880F000465149304602F0FBF8054692
:1040D00002F08CF804460C2004232246282100908C
:1040E0006820FEF767FD4E490868002102F0B6F926
:1040F00015D83DA228215E20FEF7A6FD4849086894
:10410000424902F0DFF8054602F070F804460C2040
:1041100004232246282100906820FEF74BFD43A28D
:1041200032210020FEF790FD42A232213E20FEF710
:104130008BFD41A232215620FEF786FD3F494048C3
:10414000006801F041FF054602F050F804460C20DB
:1041500002232246322100903020FEF72BFD394900
:104160003748006801F030FF054602F023F80A21C5
:1041700090FBF1F201FB12040C20012322463221B4
:1041800000904620FEF716FD2D48006802F012F858
:104190000A2190FBF1F201FB12040C2001232246BC
:1041A000322100904E20FEF705FD06480C380068CD
:1041B000012850D124A249E0E80000204952444D92
:1041C0003A000000100121423100000030000000E0
:1041D000308121425678000094000020567A000079
:1041E000C80000202D0000002B00000098000020D7
:1041F0007000002074000020780000207C00002067
:104200004C2D543A000000001C05002000007A44A8
:104210004C2D453A00000000522D543A0000000099
:104220002C050020522D453A00000000566F6C749A
:104230003A0000002E000000560000000000C842B6
:10424000B8000020000020414F464600322169207E
:10425000FEF7FAFC04E049A232216920FEF7F4FCE3
:10426000FEF7C8FBF8BD2DE9F04F89B04449454839
:10427000006802F02FF981464FF0804102F022F8E9
:104280008046414901F0A0FE074601F093FF064633
:10429000002E00DA0026642E00DD64263B49086803
:1042A0003B4902F00FF8074601F084FF0546002D58
:1042B00000DA6D4237490868354902F003F80746CD
:1042C00001F078FF0446002C00DA6442324800789E
:1042D00008B9012000E000202F4908702F4800781D
:1042E000012837D12E48006801F064FF07462D48A9
:1042F000006801F05FFF80462B48006801F05AFF1C
:1043000081462A48006801F055FF82462848006827
:1043100001F050FF83462748006801F04BFF0890EA
:104320002548006801F046FF07902448006801F026
:1043300041FF06900020CDE900BACDE90298CDE911
:1043400004701FA006A90EC900F05CF800201349F4
:1043500008700FE01048007830B933462A462146ED
:104360001FA000F04FF805E000231A46194620A0D0
:1043700000F048F809B0BDE8F08F00004F4E200073
:1043800000C08A44B8000020000040402C050020F6
:1043900000007A441C050020E400002048000020B2
:1043A000840000207C0000207800002074000020A1
:1043B0007000002080000020A8000020A400002041
:1043C0007B4325643A25643A25643A25643A25649A
:1043D0003A25643A25643A25643A25647D24000030
:1043E0007B4125643A25643A25647D240000000061
:1043F0007B4225643A25643A25647D240000000050
:10440000704700000FB4044910B503AA029800F0E9
:10441000FFF810BC5DF814FB2C0000202DE9F041E2
:104420000E460446002020622046E168884730B3EB
:10443000252805D0D4E901219047206A401CF2E7E5
:10444000E168204600278847050018D0A5F1410003
:10445000192802D820354FF40067324629462046F5
:104460002760FBF79FFE40B1012804D0F61D26F01F
:1044700007060836D8E7361DD6E72846DAE7206A69
:10448000BDE8F0812DE9F041064600241068752949
:10449000314616A510D0AFF30080002802DA404262
:1044A00013A507E031688A0701D512A502E0490784
:1044B00004D511A5012401E0AFF3008000210A22F8
:1044C00006F1240709E0B0FBF2FCB0FBF2F302FBBB
:1044D0001C00303078541846491C0028F3D123467C
:1044E0002A463046BDE8F04100F039B8000000002F
:1044F0002D0000002B000000200000004FF0000203
:104500000429C0F0128010F0030C00F09580CCF16B
:10451000040CBCF1020F18BF00F8012BA8BF20F853
:10452000022BA1EB0C0100F087B85FEAC17C24BF2D
:1045300000F8012B00F8012B48BF00F8012B704751
:10454000704770477047704710B500F09BF80068DF
:1045500010BD10B5044600F095F8046010BD2DE9BB
:10456000F0470D4699469246044600F1240801683A
:10457000880604D5E06921F01001216000E00120E7
:10458000A84201DD471B00E00027A1697A1902EB70
:104590000900081AA0612078C00602D42046AFF3B3
:1045A0000080002608E0D4E901211AF806009047AF
:1045B000206A401C761C20624E45F4DB2078C00641
:1045C0000AD52046AFF3008006E0D4E9012130206F
:1045D0009047206A401C2062381EA7F10107F4DCD6
:1045E00007E0D4E9012118F805009047206A401C33
:1045F0002062281EA5F10105F3DC2046AFF3008000
:104600002078000602D50220BDE8F0870120FBE7F4
:10461000074B70B50D467B4400F03DF80446284634
:1046200000F04CF810B14FF0FF3070BD204670BD67
:104630004BE0FFFF4FF0000200B51346944696464C
:10464000203922BFA0E80C50A0E80C50B1F12001A5
:10465000BFF4F7AF090728BFA0E80C5048BF0CC053
:104660005DF804EB890028BF40F8042B08BF7047B1
:1046700048BF20F8022B11F0804F18BF00F8012B23
:1046800070470000004870473C05002001694A1C43
:1046900002610878704700B58FB0CDE90131002183
:1046A000059105497944CDE9031011466846FFF7A5
:1046B000B5FE0FB000BD0000E5FFFFFF007B00F07E
:1046C00080007047004870473C0500207546FFF7A2
:1046D000F9FFAE4605006946534620F007008546BF
:1046E00018B020B5FBF7BAFEBDE820404FF0000639
:1046F0004FF000074FF000084FF0000B21F00701CA
:10470000AC46ACE8C009ACE8C009ACE8C009ACE80C
:10471000C0098D46704710B50446AFF300802046AF
:10472000BDE81040FBF750BD490050EAC12018BF5A
:1047300004204A0D18BF40F0010040F2FF72B2EBB6
:10474000515F08BF40F00200012808BF05207047F4
:104750002DE9F0414F1E00EBC7010446D1E90001ED
:1047600015461E4637F006020DD02A46334601F0A4
:1047700081F87F1E04EBC703D3E9002300F0A2FDFC
:1047800037F00602F1D1022F25D0042F13D0062FC7
:1047900018BFBDE8F0812A46334601F06BF8D4E932
:1047A0000A2300F08FFD2A46334601F063F8D4E96E
:1047B000082300F087FD2A46334601F05BF8D4E970
:1047C000062300F07FFD2A46334601F053F8D4E972
:1047D000042300F077FD2A46334601F04BF8D4E974
:1047E000022300F06FFD2A46334601F043F8D4E976
:1047F0000023BDE8F04100F065BD00000022134633
:104800001046014900F01ABE0000F03F00F05ABD0A
:10481000002213461046114600F010BE40F201324D
:1048200000204FF0E04101F0FCBE0000024A0020F1
:10483000110701F0F6BE000001FDFFFF2DE9F04D6C
:104840001D460C4698B0174621F0004123F0004366
:10485000002814BF4FF0010C4FF0000C0CEB440C7F
:10486000FE4A0CEB02064FEA620C66452BD33E0073
:1048700018BF012606EB45061644F94A964222D394
:10488000F84A53EA070C02D0944205D148B918B04F
:1048900000201146BDE8F08D002808BF4FF0000C45
:1048A00001D04FF0010C0CEB440212F5001F0AD8A6
:1048B000002F14BF4FF0010C4FF0000C0CEB450221
:1048C00012F5001F07D918B03A462B462146BDE81D
:1048D000F04DFFF79BBF0022DFF88CA3002CB8BF80
:1048E000534526DADFF884C36345A8BF022220DAE5
:1048F000DFF870C39C451CDCDFF874C30CEB235C51
:10490000BCF1140F08DDCCF1340627FA06FC0CFAD2
:1049100006F6BE420DD108E05FB9CCF1140623FAC9
:1049200006FC0CFA06F69E4203D10CF00102C2F11D
:10493000020251EA000C19D1002D17DA002C18BF21
:10494000022A01D0012A07D00220FFF702FE18B088
:10495000BDE8F04DFFF752BF0220FFF7FAFDFFF769
:104960004DFF18B081F00041BDE8F08DB7F1000CAB
:104970006CD1534525D104F1804212F5801201BF5C
:1049800000280020B74918B008BFBDE8F08DB54831
:10499000884207DC002DA1BF6046294618B0BDE85B
:1049A000F08D07E0281E05DA80F0004118B060465F
:1049B000BDE8F08DAF497944D1E9000118B0BDE8F8
:1049C000F08DDFF8A0C2634525D1002D1FDA19B1A3
:1049D000514512D1D8B909E0002840F0EC82A24A32
:1049E000214618B062F31E01BDE8F08D002021467B
:1049F00018B060F31E01BDE8F08D08DA18B0234648
:104A0000BDE8F04D02460020614600F017BD18B029
:104A10002146BDE8F08D514518DAB5F1804F0DD033
:104A2000A5F1005CBCF1FF5C10D1B4F1000C0DDB12
:104A300018B06146BDE8F04D00F0ECBB234618B05D
:104A40000246BDE8F04D194600F014BF060024F000
:104A5000004C3BD1D9B1514533D1002C06DD002D9E
:104A6000A1BF0020514618B0BDE8F08D002C01DD3B
:104A7000002D1BDB002C13DA002D11DB012A4FF077
:104A8000000014BF78497C4918B0BDE8F08D022AB7
:104A900018BF002C0AD0012A08D1002C06DA0AE03F
:104AA000002CB8BF002D11DA012A04D0002018B064
:104AB0000146BDE8F08D18B000204FF00041BDE880
:104AC000F08DA1F14050B0F17F601AD0012000EBD1
:104AD000E47050EA020421D0624C521E4FF0000BE9
:104AE000104304BF4FF0000B644C654883427CDDEB
:104AF000644A654893421FDD884217DB002D25DBA1
:104B000037E0002C00DA4AB1022A0CBF01204FF036
:104B1000FF3018B0BDE8F04D00F045BE0120FFF7B2
:104B200018FD18B0BDE8F04DFFF772BE4D4A8A423D
:104B300002DC002D0ADC1CE0814202DA002D18DACA
:104B400004E0484B994220DD002D12DD0220FFF7E2
:104B500000FDFFF763FE05460E4600225346584609
:104B6000214600F087FE18B066F31E012846BDE816
:104B7000F08D0220FFF7EDFCFFF758FE0A462146B4
:104B800018B062F31E01BDE8F08D00223046614688
:104B900001F096F880460E466FF0010201F041FDEB
:104BA0004FF05532394B00F099FF4246334600F042
:104BB00061FE0022364B00F091FF824642463346AA
:104BC00004911046194600F055FE5246049B00F031
:104BD00051FE8A4600904FF0C0422E4B404631466F
:104BE00000F048FE2C4A2B4B00E027E0CDE90601FF
:104BF0005146009800F03EFE82460191274A284B1C
:104C00004046314600F036FE5246019B01F058F80E
:104C100082460B4602460591DDE9060100F052FB93
:104C2000DDE9062300268846304601F049F8524661
:104C3000059B00F053FF024600F07EB90020B1F55D
:104C4000801F07DA35223046614601F0EAFC06464D
:104C50006FF0340000EB215024E00000FFFF1F0044
:104C6000FFFF0F000000F03F0000F07F0000404316
:104C700001FCFFFFE62700000000F0FF0000F0BF8E
:104C80000000E0410000F043FFFFEF3F5555D53FE6
:104C90000000E03F4715F73FFE822B6544DF5DF8DB
:104CA0000BAE543EA0F2FF300190C1F3130040F070
:104CB0007F6141F040510291FE498842D8BF0020F7
:104CC00004DDFD498142C8BF012001DD0D9008E0EF
:104CD00000200D900198401C01900298A0F58010D2
:104CE00002900299F54878440B910D9900EBC100B0
:104CF000D0E900230F9330460A920B9900F0E0FFB1
:104D0000CDE90601DDE90A2130460F9B00F0DAFA11
:104D100002460B460020EA4900F090FB059102464E
:104D20000B460090DDE9060100F0A4FD1490E54873
:104D30008A464FF0000878440299006812904FF0BC
:104D4000005040EA61010D980F9B01EB804000F597
:104D5000002109910A9A129800F0B2FF32460B9B8B
:104D600000F0BCFE4246534600F084FD0646029128
:104D700040465146099B129A00F07CFDDDE906236E
:104D800000F0ACFE3246029B00F09AFF059B009AB1
:104D900000F070FD0091149A049053461046194695
:104DA00000F068FD06460246C7480B460291062100
:104DB0007844FFF7CDFCCDE90510029B3246104642
:104DC000194600F057FDDDE9053200F053FD05916D
:104DD0000646534640461946149A00F073FA009B63
:104DE000049A00F047FD3246059B00F06BFACDE9CE
:104DF0000510424653461046194600F03BFD00227E
:104E0000B24B02910A9000F05DFADDE9053200F044
:104E100059FA0E464246AD4B404600F051FF029B08
:104E20000A9A00F04DFFDDE9053200F057FE4246D8
:104E300002910A9033461046514600F01BFDCDE921
:104E400006015346149A02990A9800F013FD8A4607
:104E50000290334642460099049800F00BFD5346F9
:104E6000029A00F02FFA82460B4602460591DDE9D0
:104E7000060100F027FADDE90623002088460646F1
:104E800000F01EFF5246059B00F028FE8246099165
:104E90004FF060428E4B3046414600F0EBFC0490F0
:104EA00006918C4A8A4B5046099900F0E3FC8246F1
:104EB0000291894A894B3046414600F0DBFC52465C
:104EC000029B00F0FFF9864B7B440D9A03EBC20373
:104ED000D3E9002300F0F6F90E900791019800F055
:104EE00062FC0591DDE9061382460E9A049800F0F3
:104EF000E9F97C4A7A440D9B02EBC303D3E9002312
:104F00000093029200F0DEF95246059B00F0DAF9B8
:104F10000026884652463046059B00F0D1FE009B95
:104F2000029A00F0CDFE069B049A00F0C9FE079B92
:104F30000E9A00F0D3FD024600200B460290384640
:104F4000294600F097FC824601912B4638461946C7
:104F5000029A00F0B5FE3246434600F08BFC524602
:104F6000019B00F0AFF907468A4632464346294680
:104F7000029800F07FFC05460E463A46534600F084
:104F8000A1F9594A8846914221DBA8EB020353EA72
:104F9000000210D12A46334600F092FECDE904010A
:104FA000524A534B3846514600F08CF9DDE9042350
:104FB00000F05EFD21D20220FFF7CBFAFFF72EFCB6
:104FC0000A46214618B062F31E01BDE8F08D494B38
:104FD00028F000429A4210D3474A08EB020353EAF2
:104FE00000027FF4C6AD2A46334600F069FE3A4619
:104FF000534600F03DFD7FF6BCAD0022019228F043
:1050000000403E493E4A01EB2051824223DA481CCF
:105010004FF4801121FA00F040443A4AC0F30A519B
:105020007A44394BA1F2FF31CB4020EA0303C0F3AD
:10503000130040F48010C1F11401C84012680190BF
:10504000B8F1000FBCBF404201902846314600F045
:1050500037FE05460E462A4633463846514600F08E
:1050600031F94FF000084246284B4046059100F0C8
:1050700001FCCDE90601264A264B4046059900F081
:10508000F9FB009102902A4633464046059900F00C
:1050900017FE3A46534600F021FD1F4A1F4B00F011
:1050A000E9FB009B029A00F00DF90746884602468C
:1050B0000B4635E08E9803007AB60B002E240000D4
:1050C0000000F03F66240000942300000000084028
:1050D00009C7EE3FFD033ADCF5015B14E02F3EBE4D
:1050E0006C2200003022000000009040FE822B6500
:1050F0004715973C00CC904000346F3F01FCFFFF08
:105100000000E03F7C210000FFFF0F00432EE63F40
:10511000396CA80C615C20BEEF39FAFE422EE63FE6
:10512000DDE9060100F0CEF8DDE9062305460E466E
:1051300000F0C6FD3A46434600F0D0FC0F462A4632
:10514000334600901046194600F094FB8246024612
:105150002E4888460B4605217844FFF7F9FA524657
:10516000434600F087FB2A46334600F0B7FC8046F2
:105170008A463B4628463146009A00F07BFB3B4678
:10518000009A00F09FF80691009000224FF08043B3
:105190004046514600F094FD0F460C90424653465F
:1051A0002846314600F066FB3B460C9A00F046F973
:1051B000069B009A00F084FD2A46334600F080FDED
:1051C0000022134B00F08AFC054601980E4601EBC5
:1051D00000510815002810DC28463146019A01F0DC
:1051E00020FAFFF7A1FA042808BFFFF71FFB2846A3
:1051F0003146019A01F015FA05460B4618B02A46C9
:1052000058462146BDE8F04D00F034BB1C2000009C
:105210000000F03F2DE9F04106460F4600F06AFC21
:10522000041E0D4618BF0120284320F00040C0F1A5
:105230007F6000F1E040C00F0ED0301C18BF01208D
:10524000384320F00040C0F17F6000F1E040C00F23
:1052500004BF0120FFF77DF920462946BDE8F08113
:1052600021F00042A2F16052B2F5801F01F000432C
:1052700028BFD2F17F6C0BD95FEA001C43EAC2025F
:1052800042EB507018BF704728BF20F001007047F4
:10529000B2F5801FBCBF184670474FEA410C1CF5A1
:1052A000001F02D2084601F0D4B870B500F08CFBA4
:1052B00000000089FFF7F6BF4FF00040A0F5800026
:1052C0007047000010B591EA030F48BF83F0004318
:1052D00000F1FE84841A71EB030C05D2121943EB22
:1052E0000C03001B61EB0C01DFF824E14FEA1154C1
:1052F000A4EB135C1EEA430F18BF9EEA445F73D011
:1053000023EA0E03DCF1200E21EA045143F480135A
:1053100032D322FA0CFE10EB0E0023FA0CFE41EB06
:105320000E01CCF1200E03FA0EFE10EB0E0051F12F
:105330000001B1F5801FCCF1200E32D201EB0451F7
:1053400012FA0EF2BDE8104058BF7047401C38BF3B
:105350005FEA420218BF7047002814BF20F0010026
:1053600041F100014FEA410313F5001F38BF7047B8
:10537000A1F1C04100F076BB012A43EB0302ACF17E
:10538000200CDCF11F0E32BF4FF0000E23FA0CF39D
:1053900010EB030041EB0451B4EB115FD0D0A1EB53
:1053A000045101F5801149085FEA300001EB045116
:1053B0000ED350F1000038BF12FA0EFE08D1BDE83E
:1053C0001040C9E7401C38BF5FEA4202CAD1C3E7B8
:1053D000BDE810404FEA410313F5001F38BF704786
:1053E000A1F1C04100F03EBB9EEA445F08D011EA43
:1053F0005E0FBDE8104004BF01F00041002070477F
:10540000BDE8104070B500F0DFFA00BF64FBBE3E9F
:105410000000E0FF02494FF0000001F0D0B800BFEB
:105420000000F87F491058BFC1F140415B1058BFE0
:10543000C3F140438B42EFF3008070472DE9C04138
:1054400030B4DFF8A0C23CEA111418BF3CEA1314D0
:1054500000F0EC8081EA03051CEA111444EAD574DB
:1054600018BF1CEA131500F0C780A4EB05044FF029
:10547000004545EAC12145EAC32341EA505143EAC8
:10548000525304F17F74994204F500344FEAC0206E
:105490004FEAC22208BF904200F09C804FEA136599
:1054A0000FF24016765D4FEA134506FB05F7C7F18C
:1054B000807706FB07F74FEAD737A7FB03687642EA
:1054C000C8F58038A7FB06CE38BFA8F1010807FB56
:1054D00008E64FF0000EA6FB028CE6FB03CEDCF1E3
:1054E000000CCEF1004E38BFAEF1010EA6FB0C58F9
:1054F0004FF000074FF00005E6FB0E87A1FB08C642
:10550000A0FB07CE16EB0E0645F10005E1FB076593
:1055100015F1E04E7EBFA4F580345FEA46066D418A
:1055200016F1800745F100054FEA17274FEA066696
:1055300047EA0567A6F1DE46B6F1805F4FEA15251A
:105540001FD9384624F0010C05EBC471BCF1FE6F85
:1055500001EB0C1102D8F0BCBDE8008124425CBF15
:1055600001F5801E9EEAC47F02D4F0BCBDE8008134
:10557000244238D4F0BCA1F1C041BDE8004100F0A4
:1055800071BA4FEAD22242EA43524FEAD323A7FB31
:1055900002864FEAD02040EA415007FB03661EEA2C
:1055A0000E0F4FEAD12105FB026658BFA6EB00564D
:1055B000B6EB00564FEA520E4EEAC37E18EB0E0EC3
:1055C00056EB530EBDD518EB02085E417F1C55F11A
:1055D0000005B6E74FF480154FF000074FF00006C6
:1055E0004FF00008ADE7F0BC4FF0000001F1C04102
:1055F00001F00041BDE8008111EA0C1F0CEA13150F
:1056000000D00CE013EA0C1F00F025804FF00000E2
:10561000F0BC81EA030101F00041BDE80081F0BC6B
:10562000BDE8004181EA030100F01CBAF0BCBDE80E
:10563000004170B500F0C8F9097EFC3E00F007B8E3
:1056400081EA03014FF0000001F00041704781EA58
:10565000030100F007BAF0BCBDE800414FF00000C4
:1056600021497047FFFDFBF9F7F5F4F2F0EEEDEBA1
:10567000E9E8E6E4E3E1E0DEDDDBDAD8D7D5D4D350
:10568000D1D0CFCDCCCBCAC8C7C6C5C4C2C1C0BF9C
:10569000BEBDBCBBBAB9B8B7B6B5B4B3B2B1B0AFA2
:1056A000AEADACABAAA9A8A8A7A6A5A4A3A3A2A186
:1056B000A09F9F9E9D9C9C9B9A9999989797969541
:1056C00095949393929191908F8F8E8E8D8C8C8BDD
:1056D0008B8A898988888787868585848483838265
:1056E000828181800000FF070000F87F4FEA4103BC
:1056F0004FEA5353A3F58063D3F11E03C8BFD3F120
:10570000210C0CDD4FF0004242EAC12242EA505225
:1057100032FA03FC8CEAE17CACEBE1707047102BB1
:10572000C4BF0020704703F5787CBCF1FF3F04D074
:105730006FF0004282EA2100704770B500F044F932
:105740004992248000207047F2E700004FEA11538D
:10575000A3F58063D3F11E03A8BFD3F1200C08DBAF
:105760004FF0004242EAC12252EA505232FA03F0AC
:10577000704709420BD4102BC4BF0020704703F5BB
:10578000787CBCF1FF3F05D04FF0FF3070474FF001
:105790000000704770B500F017F900BF49922480EF
:1057A00000207047F0E710F0004248BF4042B0FAD6
:1057B00080F310FA03F10AD0C3F11D0303F58063EF
:1057C0004FEA415002EB035202EBD12170474FF0F8
:1057D00000007047B0FA80F310FA03F10AD0C3F169
:1057E0001D0303F580634FEA41504FEA035202EB79
:1057F000D12170474FF000007047000051EA030CC0
:1058000017D41CF5801F58BFBCF5801F00F106801F
:10581000994218BF704708BF9042704707D711F5EB
:10582000801F58BF13F5801F19D4994270478942D1
:1058300070471CF5801F08D5BCF5801FF7D58B423B
:1058400018BF704708BF824270474FF4001C1CEB22
:10585000410F38BF1CEB430F01D28B42704770B52C
:1058600000F0B2F8922449004FF000514FF08053FD
:10587000FFF7D8BDDFF848C170B51CEA111E1EBF86
:105880001CEA13159EEA0C0F95EA0C0F00F06F80CE
:1058900081EA030423EA4C134EEAD47E21EA4C1138
:1058A00041F4801143F48013AE44A1FB024CA0FBF1
:1058B0000365AEF17F7E361955EB0C05A1FB034C59
:1058C0004CF10003A0FB021C16EB0C06654153F1E2
:1058D0000003094218BF46F0010613F4007F0BD104
:1058E0004FEA03314FEA0530340341EA155140EAEB
:1058F00016506FF003020AE04FEAC3214FEAC520B9
:10590000F40241EA555140EA56506FF0020202EBB0
:105910002E4201EB025585EACE710AD05FEA440CB3
:1059200018BF24F0004450F1000041F1000120EACA
:10593000D47040F2FE7C624500D270BDA84214BF14
:105940004FF080444FF04044002E08BF0024BEF1C9
:10595000806FA8BFA1F1C041BDE8704080F2828095
:105960004FF0000001F1C04101F0004170479EEA94
:105970000C0F0CEA131518BF95EA0C0F06D04FF068
:10598000000081EA030E0EF0004170BD00F01CF82B
:105990008900013E00F007B800F009B84FEA430C57
:1059A0005FEA5C5C08D081EA030100F05BB84FEA73
:1059B000410C5FEA5C5CF6D14FF000000149704792
:1059C0000000FF070000F87F0EF1020E2EF0030E1C
:1059D0005EF8046B364205D4012A43EB030515F546
:1059E000001F12D8012841EB010C1CF5001F0CD838
:1059F0000ED14FEAD17C15F5001F0CEB4C0C0CF1CD
:105A0000020C08BF4CEBD37C04E04FF0080C01E023
:105A10004FEAD37C0CEB4C0526FA05F606F0070698
:105A2000B6F1040C06D20EEB860CBDE870404CF0CB
:105A3000010C6047DFE80CF0090B02024FF0004157
:105A40004FF00000A1F5002170BD19461046012855
:105A500051EB010418BFD4F5001484BF002001F0FD
:105A6000004170BD0808A0F500114FEA31017047F0
:105A700053EA010C17D41CF5801F58BFBCF5801FDA
:105A800000F106808B4218BF704708BF8242704702
:105A900007D713F5801F58BF11F5801F19D48B420B
:105AA00070479B4270471CF5801F08D5BCF5801FCE
:105AB000F7D5994218BF704708BF904270474FF41E
:105AC000001C1CEB430F38BF1CEB410F01D2994265
:105AD00070470FB40CBC03BCFFF7C1BE91EA030FC3
