:020000040000FA
:10000000480620206D01000071010000730100000E
:1000100000000000000000000000000000000000E0
:10002000000000000000000000000000750100005A
:1000300000000000000000007701000079010000CE
:100040007B010000F10800009D100000D9100000A5
:100050007B0100007B0100007B0100007B010000B0
:10006000000000007B0100007B0100000000000098
:1000700000000000B5100000CD100000A910000025
:1000800061100000791000007B0100007B0100007E
:10009000911000006D100000000000000000000042
:1000A0007B0100007B010000000000000000000058
:1000B0007B010000000000007B0100007B010000CC
:1000C00000F002F800F042F812A030C808382418F6
:1000D0002D18AC4201D100F039F80FCCA246AB4646
:1000E0000CA730CF2D1B083F3F197C427F1E544484
:1000F0002D090426F441641EAC4201D300F026F819
:100100000126334200D0FB1A3343984754465D46DC
:10011000DFE70000DC300000EC30000000000000F1
:100120007047000000000000002300240025002686
:10013000103A01D378C1FBD8520700D330C100D5A3
:100140000B6070471FB51FBD10B510BD00F0AEF9B4
:100150001146FFF7F7FF01F0AFFB00F0C6F903B45B
:10016000FFF7F2FF03BC00F0BDFF000006480047A8
:10017000FEE7FEE7FEE7FEE7FEE7FEE70348044989
:10018000024A044B70470000C100000048022020D2
:100190004806202048022020002203098B4273D306
:1001A000030A8B4258D3030B8B423CD3030C8B4284
:1001B00021D312E003460B437FD4002243088B4235
:1001C00074D303098B425FD3030A8B4244D3030BDE
:1001D0008B4228D3030C8B420DD30902FF2212BAA3
:1001E000030C8B4202D31212090265D0030B8B421F
:1001F00019D300E0090AC30B8B4201D3CB03C01A09
:100200005241830B8B4201D38B03C01A5241430BE3
:100210008B4201D34B03C01A5241030B8B4201D3D3
:100220000B03C01A5241C30A8B4201D3CB02C01A3E
:100230005241830A8B4201D38B02C01A5241430AB6
:100240008B4201D34B02C01A5241030A8B4201D3A5
:100250000B02C01A5241CDD2C3098B4201D3CB014C
:10026000C01A524183098B4201D38B01C01A5241FB
:1002700043098B4201D34B01C01A524103098B42FF
:1002800001D30B01C01A5241C3088B4201D3CB00EA
:10029000C01A524183088B4201D38B00C01A5241CD
:1002A00043088B4201D34B00C01A5241411A00D27D
:1002B00001465241104670475DE0CA0F00D04942E6
:1002C000031000D3404253409C46002203098B4256
:1002D0002DD3030A8B4212D38901FC2212BA030ADE
:1002E0008B420CD3890192118B4208D38901921160
:1002F0008B4204D389013AD0921100E08909C309E5
:100300008B4201D3CB01C01A524183098B4201D3E6
:100310008B01C01A524143098B4201D34B01C01AD1
:10032000524103098B4201D30B01C01A5241C30849
:100330008B4201D3CB00C01A524183088B4201D3B8
:100340008B00C01A5241D9D243088B4201D34B00D3
:10035000C01A5241411A00D201465241104663462A
:100360005B1001D34042002B00D5494270476346E1
:100370005B1000D3404201B50449002802DC491C4F
:10038000084000E00846C046C04602BDFFFFFF7FB0
:1003900070477047704710B501469E240002CA1589
:1003A000A307002A02D01843002A04DBA21A002A5D
:1003B0000CDDD04010BD1206120E01D140004008E5
:1003C000A21A03D4D04040420028F3DDFF224800A7
:1003D0001206904201D9002010BDC817C0435840F2
:1003E00010BD1F22030C02D10F2200041CD0030EEB
:1003F00001D10002083A030F01D10001121F830F3F
:1004000001D18000921E002801DB4000521ED2055F
:100410005118021251181922904004D3491C002887
:1004200001D14908490008467047C10FC90700D0EB
:100430004042012292071143D3E701218907D0E707
:1004400010B5FF231B0644009C421DD84C009C4263
:100450001AD80346124A0B4307D4401A02D3EFF3CB
:10046000008010BDEFF3008010BD081A03D3EFF336
:100470000080904305E0EFF3008001219043C9071D
:10048000084380F3008810BD0D231B041A4204D0DA
:100490001146002000F031F810BD00F045F810BD05
:1004A0000000009000487047000020207546FFF7CC
:1004B000F9FFAE46050069465346C008C0008546B0
:1004C00018B020B5FFF75AFE60BCB64600260027DC
:1004D000C0C5C0C5C0C5C0C5C0C5C0C5C0C5C0C5F4
:1004E000403D490849008D46704710B50446C04656
:1004F000C0462046FFF733FE10BDC80212D54803A0
:10050000400F002804D0C803C04301218840704731
:10051000EFF300800001000903210907084380F37D
:10052000008870470020704710B5024800F004F8BA
:1005300010BD00000000C07F10B50C461107090F68
:10054000092904D00A290AD008290CD104E011464F
:100550000820FFF7D2FF06E0510606D501E051065C
:1005600001D50120C007214610BDD10607D50101E4
:100570000909CC084907000E0006044309E0410FB1
:1005800020024907000A0143200E00061D22D14126
:1005900001430846E7E70000F0B584B001242202D9
:1005A0002A4B196803929143196035490D686D040F
:1005B000FCD5457E25409E69A64374199C61202484
:1005C000045D03252C40DE69AE433419DC61204C08
:1005D000256805262660466A37681F6276685E626F
:1005E00007262E402660C4697F252D02DE69AE43B2
:1005F0006406640C3419DC610768456882680092FF
:10060000C66802690192426902929A69114C1440CB
:100610003A07120B2D03ADB2AA183243009D2D07E5
:100620002D0D1543019A1543029A1543007E284368
:10063000094A0240101998611868039A104318601B
:1006400008688005FCD504B0F0BDC04608010B4029
:10065000001340408D00F0FF72FF0F0007498860D3
:10066000074802689202FCD5012212040B6813436A
:100670000B600168C906FCD57047C04604010B40F9
:1006800004020B40F0B5684A8218294BC318087958
:1006900020280DD000281DD10C68641E5460D56E32
:1006A000244C25408835D5661646703688251DE0D1
:1006B0000C68641E5460D46E1E4D2C401E4EA4194E
:1006C000D466146F2C40A4191467012465071B4CD1
:1006D00016460BE00C6864085460D66E154C264034
:1006E0000525ED017619D66616467036376827401F
:1006F0002F433760D46A4E4D2C40D462146B2C408B
:1007000014630024D46414658F24E443D56F25401A
:10071000D5671D6825401D6049790143BD2008400B
:100720001168074B0B40C018801C1060F0BDC0461C
:100730008418000024493E0001040000FFFFFFCFA1
:100740004000FFCFB0B54A68364BC250364A8018D9
:100750000A78222A58D8930001A4E3589F46C0463D
:10076000FF07000009080000FF070000090800005B
:100770000908000009080000090800000908000035
:100780000908000009080000090800000908000025
:100790000908000009080000090800000908000015
:1007A000ED07000009080000ED070000090800003F
:1007B00009080000090800000908000009080000F5
:1007C00009080000090800000908000009080000E5
:1007D00009080000090800000908000009080000D5
:1007E000ED07000009080000ED07000003231B07C8
:1007F00004689C4301235B07E318036004E00323C0
:100800001B0704689C4304600B8AC360CB68074CD9
:100810001C40C36A064D1D402B19C362097A11435F
:100820000160B0BD081800000418000077770200CE
:100830008888FDFF10B507239B041940920080189B
:10084000024A84589C436118815010BD3018000042
:1008500010B5029CA400001911431943014A8150AC
:1008600010BDC0465018000092008018014A815007
:100870007047C0461018000010B5012212038318FB
:100880000C789C604B7883508978014A815010BD68
:100890000C110000B0B51122120283580124A343A9
:1008A00083500B888C781C438B882343094C1C4055
:1008B0008358094D1D40631983508B79CC791C43B3
:1008C000097A21437E231940801842689A435118BF
:1008D0004160B0BD18670000E798FDFF10B5012228
:1008E000120383180C789C604978815010BD000079
:1008F000F0B581B001250F4C2068C00407D42068F2
:10090000000414D501200104C6030C4F02E0690362
:100910002E03094FD94800F0E1FE002801D0002045
:10092000C54338682818386020693043206101B019
:10093000F0BDC04638100A4060002020640020202E
:10094000F0B581B03A4C40251622002620462946B3
:10095000334600F0CBFE8027172220463946334627
:1009600000F0C4FE012620463946324600F0DEFE85
:100970000227384600F076FC20462946324600F031
:10098000D5FE384600F06EFC01B0F0BD70B5284DC4
:100990000821284600F0A2FE0646002805D00024C3
:1009A00070427041184908700DE017480078002423
:1009B000002808D1142000F0CFFB0821284600F0C1
:1009C0008DFE00281BD00421284600F087FE064635
:1009D000002805D0704270410C490870204670BD57
:1009E0000A480078002808D1142000F0B5FB042143
:1009F000284600F073FE002803D0204670BD012475
:100A0000CEE70224E6E7C0466800202069002020E7
:100A1000B0B5074C08210F22012520462B4600F0D7
:100A200065FE04210E2220462B4600F05FFEB0BD7D
:100A300000200A40B0B5B02000F0A4FA102000F069
:100A4000A1FA0025284600F09DFA0024204600F077
:100A5000CFFA681C45B2002DF7D5B12000F092FA0C
:100A6000102000F08FFA204600F08CFA002528466E
:100A700000F0BEFA601C44B2002CF7D5B22000F0A2
:100A800081FA102000F07EFA284600F07BFA00245C
:100A9000204600F0ADFA681C45B2002DF7D5B32012
:100AA00000F070FA102000F06DFA204600F06AFAAB
:100AB0000025284600F09CFA601C44B2002CF7D5B3
:100AC000B42000F05FFA102000F05CFA284600F035
:100AD00059FA0024204600F08BFA681C45B2002D1C
:100AE000F7D5B52000F04EFA102000F04BFA204662
:100AF00000F048FA0025284600F07AFA601C44B25B
:100B0000002CF7D5B62000F03DFA102000F03AFA9C
:100B1000284600F037FA0024204600F069FA681CE5
:100B200045B2002DF7D5B72000F02CFA102000F0C8
:100B300029FA204600F026FA002000F059FA601C3D
:100B400044B2002CF8D5B0BDF0B583B0802202408D
:100B5000074600907D4C02210291204600F0E6FD00
:100B60000125204629462A4600F0E0FD00262046C1
:100B70002946324600F0DAFD40223A402046029FE4
:100B8000394600F0D3FD204629462A4600F0CEFD26
:100B9000204629460196324600F0C8FD20220098E2
:100BA00002402046394600F0C1FD204629462A462B
:100BB00000F0BCFD20462946324600F0B7FD102269
:100BC000009F3A402046029E314600F0AFFD20468D
:100BD00029462A4600F0AAFD20462946019A00F03F
:100BE000A5FD08223A402046314600F09FFD2046F0
:100BF00029462A4600F09AFD20462946019E3246A3
:100C000000F094FD04223A402046029900F08EFD47
:100C1000204629462A4600F089FD204629463246CC
:100C200000F084FD3A4602990A40204600F07EFD1D
:100C3000204629462A4600F079FD204629463246BC
:100C400000F074FD2F40204602993A4600F06EFDF8
:100C5000204629462A4600F069FD204629463246AC
:100C600000F064FD204629462A4600F05FFD20463C
:100C70002946324600F05AFD03B0F0BD00000A409C
:100C8000F0B581B0F54E01250024304629462246B4
:100C9000234600F02BFD0227304639462A462346DC
:100CA00000F024FD304629462A4600F03FFD30463C
:100CB00039462A4600F03AFDAE2000F063F9D5200F
:100CC00000F060F9802000F05DF9A82000F05AF9EA
:100CD0003F2000F057F9D32000F054F9204600F0EF
:100CE00051F9402000F04EF9A12000F04BF9C82046
:100CF00000F048F9DA2000F045F9122000F042F93E
:100D0000812000F03FF9CF2000F03CF9D92000F01D
:100D100039F9F12000F036F9DB2000F033F930200A
:100D200000F030F9A42000F02DF9A62000F02AF9F7
:100D30008D2000F027F9142000F024F9AF2000F0F6
:100D400021F9FFF777FE01B0F0BDC04600000A4070
:100D5000F0B583B016460C46400002907E30B021BC
:100D600001910843C0B200F00DF9E700083FF8B266
:100D700004091034204600F005F908253D402846B6
:100D800000F000F9300121494618214FF05D00F0D4
:100D90002FF9F619707800F02BF9B07800F028F9E7
:100DA000F07800F025F9307900F022F9707900F040
:100DB0001FF9B07900F01CF9F07900F019F90298E8
:100DC000401E01990843C0B200F0DCF8204600F054
:100DD000D9F8284600F0D6F8307A00F009F9707A90
:100DE00000F006F9B07A00F003F9F07A00F000F9AB
:100DF000307B00F0FDF8707B00F0FAF8B07B00F07B
:100E0000F7F8F07B00F0F4F803B0F0BDC02B000061
:100E100000FEFFFFF0B587B003AC0FC4002B3DD040
:100E20000698451E41420291801E01900027494EBE
:100E300013E0012104983C18059801F04BFC0A21AD
:100E4000FFF7AAF930220A43E1B20398FFF780FFC7
:100E50006D1E7F1C0698874220D0F8430299884275
:100E6000E7D003220199C91B032901D2012105E022
:100E70002B469343012171431B1FFCD1069BC018D5
:100E80001040D7D0012801D10A2005E0022802D065
:100E90007D20C00000E064204143CBE707B0F0BDF7
:100EA000F0B587B0069314460D46002A049005D489
:100EB00005942B222946FFF74BFF05E02D222946FA
:100EC000FFF746FF64420594069800283FD0069835
:100ED000471E41420391801E0190681C029000262B
:100EE0001C4D13E0012102988419059801F0F2FBD2
:100EF0000A21FFF751F930220A43E1B20498FFF7C3
:100F000027FF7F1E761C0698864220D0F043039967
:100F10008842E7D003220199891B032901D20121CC
:100F200005E03B469343012169431B1FFCD1069B0F
:100F3000C0181040D7D0012801D10A2005E00228AE
:100F400002D07D20C00000E064204143CBE707B021
:100F5000F0BDC04610270000F0B581B006461078FD
:100F600000280DD014460D4600277919C9B2C2B227
:100F70003046FFF7EDFE7F1CF8B2205C0028F4D16C
:100F800001B0F0BDF0B581B00090344C02250126CF
:100F900020462946324600F0C9FB204631463246FB
:100FA00000F0C4FB0027204629463A4600F0BEFB6D
:100FB000204631463A4600F0B9FB7820FFF7C4FDE1
:100FC0003846FFF7C1FD0098FFF7BEFD20462946D1
:100FD0003A4600F0ABFB20463146324600F0A6FB15
:100FE00020462946324600F0A1FB01B0F0BDC046C4
:100FF000F0B581B00090ED4C02250126204629462F
:10100000324600F093FB20463146324600F08EFB1C
:101010000027204629463A4600F088FB2046314604
:101020003A4600F083FB7820FFF78EFD4020FFF763
:101030008BFD0098FFF788FD204629463A4600F0D0
:1010400075FB20463146324600F070FB20462946AB
:10105000324600F06BFB01B0F0BDC04600000A4014
:10106000014800687047C0462050084001480068A9
:101070007047C0462010874080B504480068C0B261
:10108000022801D100F0D8FF80BDC04620908640E4
:10109000014800687047C04620B08640014800689B
:1010A0007047C04620100940014800687047C0469C
:1010B0002090104080B504480068C0B20B2801D1D0
:1010C00000F080FB80BDC046201010400148006841
:1010D0007047C04620301040014800687047C04645
:1010E0002010504070470000F0B581B00120009002
:1010F00000F040F90546022000F03CF906460320C6
:1011000000F038F90746042000F034F904460520C1
:1011100000F030F90021012D16D0012E14D0012F3E
:1011200012D0012C10D0012808460ED009480078B2
:10113000401CC2B20021042A009B00D80B46042A9E
:1011400000D80146184600E00846024A117001B076
:10115000F0BDC04604022020F0B581B000282DD09B
:101160000325014629400091012109043C4B804A96
:10117000042825D2009D002D20D0536000209060CF
:1011800014680C4208D114680C4205D114680C4252
:1011900002D114680C42F3D0012D0FD0536090603F
:1011A00014680C4208D114680C4205D114680C4232
:1011B00002D114680C42F3D0022D42D101B0F0BD2F
:1011C000A84300252E4602E0361D8642D2D0536049
:1011D000956017680F4208D117680F4205D117684C
:1011E0000F4202D117680F42F3D053600027976077
:1011F00014680C4208D114680C4205D114680C42E2
:1012000002D114680C42F3D05360976014680C420A
:1012100008D114680C4205D114680C4202D114683C
:101220000C42F3D05360976014680C42CCD1146820
:101230000C42C9D114680C42C6D114680C42F3D0D8
:10124000C2E75360906010680842B7D11068084246
:10125000B4D110680842B1D110680842F3D0ADE7AC
:101260007F380100F0B581B000282DD0032401465D
:1012700021400091012109043D4A042826D2009D05
:10128000002D21D04F2050600024946013680B4241
:1012900008D113680B4205D113680B4202D11368C1
:1012A0000B42F3D0012D0FD05060946013680B42B5
:1012B00008D113680B4205D113680B4202D11368A1
:1012C0000B42F3D0022D43D101B0F0BDA043002466
:1012D000254602E02D1D8542D1D04F2656609460F0
:1012E00017680F4208D117680F4205D117680F42DF
:1012F00002D117680F42F3D0566000279760136839
:101300000B4208D113680B4205D113680B4202D17E
:1013100013680B42F3D05660976013680B4208D1F4
:1013200013680B4205D113680B4202D113680B42BC
:10133000F3D05660976013680B42CBD113680B4211
:10134000C8D113680B42C5D113680B42F3D0C1E773
:101350005060946010680842B6D110680842B3D15A
:1013600010680842B0D110680842F3D0ACE7C0461C
:1013700010E000E080B5401EC1B2042909D840B297
:10138000800005A10958654800F0A8F9411E884170
:1013900080BD012080BDC04600002000000040004C
:1013A00000008000000000010000000200000A4070
:1013B000F0B583B00124414A20462146FFF7CCFD19
:1013C0007D20C7003E480068394601F083F9024697
:1013D000032502262046294600953346FFF71AFDCD
:1013E000052102912E222046FFF7B2FC3448006806
:1013F0003946FEF7D1FE33484843020C06210191DD
:1014000020463346FFF706FD08212F4A2046FFF706
:10141000A3FD2EA230462146FFF79EFD2046FFF792
:10142000A9FF221A304629462346FFF7F3FC30462F
:10143000FFF7A0FF221A0427304639462346FFF75C
:10144000E9FC2846FFF796FF221A3046029D2946FE
:101450002346FFF7DFFC3846FFF78CFF221A3046A1
:1014600001992346FFF7D6FC2846FFF783FF221A8F
:10147000072130462346FFF7CDFC15A2009D2846E4
:101480002146FFF769FD002012490A5E28462946D9
:101490002B46FFF705FD10A238462146FFF75CFDFD
:1014A0000E480078002801D00EA200E00CA23846B9
:1014B0003946FFF751FD03B0F0BDC046D8310000FA
:1014C000000220209A190000E2310000533A000087
:1014D000453A00000602202053743A00770120208C
:1014E0005354500052554E00B0B50C2001242146F3
:1014F000224600F015F86103AB4D22222846234610
:1015000000F0F4F80F202146224600F009F82104EB
:1015100025222846234600F0E9F8B0BD00000A4025
:10152000B0B5441E1A2C3FD82523A40001A52D597F
:101530000446AF460D160000A1150000B3150000CB
:10154000BB150000C3150000CB150000D31500002B
:10155000DB150000E3150000EB150000F31500009B
:10156000FB150000031600000B16000021160000FA
:101570006B160000411600004516000049160000D9
:101580004D160000511600005516000059160000B7
:101590005D16000061160000651600006916000067
:1015A0000624012934D13EE0002310281C462DD307
:1015B0005BE0072401292BD135E00824012927D13C
:1015C00031E00924012923D12DE00A2401291FD16A
:1015D00029E00D2401291BD125E01224012917D16E
:1015E00021E01324012913D11DE0142401290FD176
:1015F00019E0152401290BD115E02124012907D177
:1016000011E02224012903D10DE0232401290AD06D
:10161000002944D1A100424B434CCC50410008E08A
:1016200024240129F4D1A1003D4B3E4CCC50410073
:10163000491C01238B4025490C681C430C602EE09B
:10164000262312E0272310E028230EE029230CE0B4
:101650002D230AE02E2308E0342306E0352304E09E
:10166000362302E03A2300E03B230446103C0129E4
:1016700008D0002913D19900294B2B4DCD50E1B250
:10168000490006E09900264B264DCD50E1B24900B5
:10169000491C01238B400D490C691C430C6101213D
:1016A00081400B48036A0B43036203680B430360EA
:1016B000FF20000207490B688343900380B218188B
:1016C0000860054802210160B0BDC04690130A4081
:1016D00028100A4000E400E000E100E02722D201E7
:1016E00080580840411E88417047000010B5022B09
:1016F0000DD0012B0FD0002B11D195235B01C01809
:101700009200074B8124D4500160016310BD90000A
:101710000349054A02E090000149024A425010BDC7
:10172000048042408100060081000500002A01D0AB
:10173000034A01E095225201801801607047C046BB
:1017400090120000B0B582B001246105164D2D2223
:1017500028462346FFF7CAFFA1052E222846234626
:10176000FFF7C4FFE105342228462346FFF7BEFFFA
:101770002106352228462346FFF7B8FF61063622A8
:1017800028462346FFF7B2FF08480090084C002186
:10179000084A094B204600F0FBFA0849084A20464F
:1017A00000F00CFB02B0B0BD00000A409A99993ECF
:1017B00008022020CDCC4C3F0AD7233C0000FA433E
:1017C0000000FA4410B5184800F01CFE17490B78C9
:1017D000174AD054174C2070581C08701378552B9A
:1017E0001FD1C0B20B281ED35078532819D11248EC
:1017F000012303709079D3791B021818137A1B0404
:10180000547A2406E31818180C4B58609078D47852
:10181000240220181479240452791206121910187F
:1018200018600020087010BD000010407C002020CF
:101830007D002020FD0120207B0020207000202042
:10184000F0B581B001252C02E548002721463A4633
:10185000FFF76CFF64263046FFF77EFCF748214611
:101860002A46FFF763FF3046FFF776FCF348214630
:101870003A46FFF75BFF3046FFF76EFCEF48214624
:101880002A46FFF753FF6E023046BC30FFF764FC78
:10189000EA4831463A46FFF749FFF4342046FFF75D
:1018A0005BFCE64831462A46FFF740FF2046FFF73B
:1018B00053FC01B0F0BDC04684B000F063FB7D2056
:1018C00003908000FFF748FC4B20C10182480222B0
:1018D000029200F09DFDFFF7D3F9FFF731F800F019
:1018E00081F9FFF701FEFFF72DFFFFF791F80024C4
:1018F00000940126B5077948794F31463A462B4680
:1019000000F046FA0094774831463A462B4600F0FC
:101910003FFA75480A21324600F0A8FB7348314669
:10192000324600F0A3FBFFF785F871A2304631463E
:10193000FFF712FB72A202983146FFF70DFB03205E
:1019400072A23146FFF708FB042073A202963146CB
:10195000FFF702FB724E019445E0FFF7C5FB00283C
:1019600000D1ABE02046214600F00AFA3470029E16
:1019700076480670FFF75EF8304631467DA2FFF7E5
:10198000EBFA022738463146664AFFF7E5FA039834
:10199000C500654C2068294600F09CFE02460321E4
:1019A00038463B46FFF736FA05212E223846FFF728
:1019B000CFF92068019C2946FEF7EEFB5B484143C6
:1019C0000A0C062138463B46FFF724FA0821384620
:1019D000574AFFF7C1FA04203146514E554AFFF7E6
:1019E000BBFAFFF72DFFFEF7D1FF022827D0012811
:1019F00060D1307800285DD1029D35704A4804607E
:101A00004D4804704D4804804D4804704D480470A2
:101A10004D4804704D480470FFF70CF828462946DD
:101A20004BA2FFF799FA022029464CA2FFF794FA3D
:101A3000032029464BA2FFF78FFA4CA236E03078FC
:101A4000012837D134702046214600F099F9FEF77D
:101A5000F1FF012738463946324AFFF77DFA0398ED
:101A6000C50031480068294600F034FE02460321D3
:101A7000022638463346FFF7CDF905212E22384697
:101A8000FFF766F9284800682946FEF785FB2748D6
:101A900041430A0C062138463346214EFFF7BAF976
:101AA00008213846224AFFF757FA224A042001212A
:101AB000FFF752FA3078012895D14EE700F076FB17
:101AC0002E490868401C086032288CD32B480460DB
:101AD000FFF76EFC87E7C0460080104080012020A1
:101AE000CDCC4C3EC0012020004008400080864004
:101AF00043617220547261636B696E67000000007D
:101B00004B4559313A537461727400004B45593258
:101B10003A53746F700000005265616479000000F0
:101B200077012020D8310000000220209A190000FF
:101B3000E2310000DB3100000402202006022020F8
:101B400079002020780020207A00202078012020B1
:101B5000543A2020302E303073000000533A303099
:101B600030303000453A20203000000053743A52A3
:101B7000554E000046696E69736821007C01202083
:101B800070B50246ED48002100F0E6F9074D2A78CD
:101B900001263106294C2046FFF7C8FD287842422D
:101BA000424131052046FFF7C1FD70BDBC01202038
:101BB00070B50246E1480124214600F0CDF9074EF8
:101BC0003278E1041D4D2846FFF7B0FD30784242DF
:101BD0004241A1042846FFF7A9FD70BDFC01202069
:101BE00000200A40F0B581B07D20C700D348002412
:101BF00021463A4600F0E6F8012529060F4E332229
:101C000030462346FFF772FD29052F223046234632
:101C1000FFF76CFDC94829463A4600F0D3F8E904BD
:101C20002C2230462346FFF761FDA9042B223046C3
:101C30002346FFF75BFD01B0F0BDC04600200A401F
:101C4000F0B583B004460068616800F051FF0646B5
:101C5000A060A06B002802962DD001286DD1A1694B
:101C6000304600F0EDFE0190A062E568304629465E
:101C700000F03EFF0146606900F0E2FE0746206288
:101C80002846294600F042FE0146304600F030FF6B
:101C9000216900F03BFE0146E06900F0D1FE0546F7
:101CA00060623846019900F031FE294600F02EFEB0
:101CB0000146E06A3CE06169304600F0C1FE0190F7
:101CC0002062A069314600F0BBFEA16A00F01EFE52
:101CD0000646A062276B394600F002FE00900028FD
:101CE0003D4600D135460120C007474028463946C9
:101CF00000F001FE00283E4600D12E460098002844
:101D000005D12846394600F0E0FD002800D1A66242
:101D1000E168029800F0ECFE0146E06900F090FEF8
:101D2000054660620198314600F0F0FD0146284604
:101D300000F0ECFD0546E06200E0E56A666B2846CF
:101D4000314600F0CDFD0028374600D12F46012155
:101D5000C9074E400028029D05D13846314600F0A3
:101D6000B4FD002807D13846314600F0C4FD0028F4
:101D700000D13E46E662E068E560206103B0F0BD58
:101D800010B50C46FFF7FCFE2046FFF711FF10BD13
:101D9000B0B5049C0025056045608560C56005619F
:101DA000074614371CC7044A056245628562C5624E
:101DB000026342638163B0BD00401C46016342631D
:101DC00070470000F0B587B00191044606AB0026CD
:101DD0001E70059605A80090204600F039F804A969
:101DE0000720487008200870069888700125E802CE
:101DF0002218B1231B065360E84A225009204001F3
:101E000002AFB880059802902046FEF735FD2046C7
:101E10003946FEF737FC20463146019F3A46FEF729
:101E200023FD00972046314632463346FEF710FD2B
:101E3000204631463A46FEF7FDFC112000022118EB
:101E40008D60BD4021582943215007B0F0BDC046E8
:101E500010B5C94CA04212DDC84CA0421FD0C84CDE
:101E6000A04226D0C74CA04267D1012935D0002915
:101E700063D13348852141630120800332E0C24CA5
:101E8000A04220D0C14CA04257D101292FD0002917
:101E900053D12E48842101600120800642E00129AF
:101EA0002BD0002949D126488721016029484021AB
:101EB00028E0012928D000293FD12148862101644A
:101EC0000120400425E0012927D0002935D11C48F4
:101ED0008421C1620120000324E019488521416763
:101EE0000120000617490860002117481EE0174826
:101EF000842141600120C00614E01148872141601F
:101F000014488021016006E00D48862141640120CB
:101F100080040C490860132107E00948852101630A
:101F2000012040030749086009210948029C1970F3
:101F3000114600F0CFFB401E206010BD00A086407F
:101F40005C804240D0120A4080969800EC8042406B
:101F500020A10700D0320A40B0B50C4605468C4996
:101F60008A4200D30A460648285880B2401C504393
:101F700000F0B0FB81B228462246FEF775FCB0BDEA
:101F800008180000F0B581B0234883494160234A16
:101F9000516082490160116021480024046044605E
:101FA000204804600F2000021F4D2968814301264C
:101FB0007002081828600320C043291F0A680240E5
:101FC0000A606868B04368606868184F38406860A5
:101FD0001748FEF7E1FA28681021014320208143C9
:101FE000296030032968014329602046FEF736FB4B
:101FF000696B05200143F22291436963A96B314368
:10200000A9630C4904220A60FF374F608C600A689C
:1020100002430A6001B0F0BD00080A4000280A40EF
:102020002880424008030B4004010B40FFFEFFFFE5
:10203000B031000010E000E080B5094908780028C0
:102040000CD008480268521C02600068064A9042A0
:1020500004D3002008700146FFF792FE80BDC04601
:10206000770120200002202030750000F0B58BB0F1
:1020700005463F482C183F482E180127F80228181B
:10208000002304933C4B9D4203920294019611DD80
:102090003A4B9D421BD03A4B9D421ED0394B9D423C
:1020A000049C29D1D64B4B433A495C181521009129
:1020B000002621E0344B9D4217D0344B9D42049CB6
:1020C0001AD132234B4333495C18022112E03223E8
:1020D0004B4330495C18112104E032234B432D4916
:1020E0005C1814210091C72606E032234B4329498E
:1020F0005C181021009163260AA98E7007264E7085
:1021000008260E70244E466005AE049B338237725B
:10211000024622203070214810600893A0B2069039
:102120002846FEF7A9FB28463146FEF70BFB029A2C
:102130001068022101431160019807601F20009A76
:1021400010408740164807609007C00EFF2181406D
:1021500052B203239A43134BD4588C4303998907F3
:10216000090E81402143D1500F4807600BB0F0BDEC
:102170002810000008110000FF7F86400080864084
:1021800000A0864000008740004008400000094051
:1021900010270000FFFF0000030000B1010000262F
:1021A00080E200E000E400E000E100E0F0B589B08A
:1021B000012677058B4D28463946FFF78FFA4442B2
:1021C0004441B10528460491FFF788FA002800D160
:1021D000641CF10528460791FFF780FA002800D11A
:1021E000641C310628460691FFF778FA002800D1D2
:1021F000641C710628460591FFF770FA002800D18B
:10220000641C0294284603973946FFF767FA2C4668
:102210004542454120460499FFF760FA07460028E9
:10222000089601D02E4600E06E1C20460799FFF765
:1022300055FA0028019000D1761C20460699FFF738
:102240004DFA0028009000D1761C20460599FFF732
:1022500045FA002800D1761C3206414241412B4606
:102260006148002A11D000220270F0B205282546EC
:102270001CD15E480178491C0170C8B2032803993B
:1022800028D35B480322027024E00278521C0270BB
:10229000D0B20428254609D30020564A105E0028F3
:1022A00001D4022000E00120514A1070019C274314
:1022B0000098074378427841624262410243012A12
:1022C00004D1194302D14A48002101704748002136
:1022D00001700399464806782846FFF7FFF907463C
:1022E0004442444128460499FFF7F8F90146002F7B
:1022F00001D1022008900491002900D008942846BA
:102300000799FFF7EBF93446002802D10898401CE2
:1023100008902E4628460699FFF7E0F90546002862
:1023200002D10898401C089030460599FFF7D6F96D
:102330000146002802D10898401C0890049B002FF9
:1023400003D00020002B04D004E06320C043002B06
:1023500000D13238089B002D00D13230002900D145
:1023600064301906002C04D07D221601002903D107
:1023700006E0214E002903D000B2D9B200F0CCF91A
:10238000029A1C490880D1B2052907D0002907D13B
:10239000710800B200281FD430461FE030461CE010
:1023A000164D0021296000B2FEF73FF8686028460C
:1023B000FFF746FCE86AFDF7EEFF0146301AC21748
:1023C00090430F4A904200D310467118CB1799439F
:1023D000914203D3114601E008463146FFF7D0FC95
:1023E00009B0F0BD00000A407900202078002020CC
:1023F0007A00202006022020B80B000008022020CE
:102400001027000001494058C0B270472411000055
:10241000F0B581B01446E1225202914204D0032665
:10242000914204D1022703E00B269142FAD01A27E9
:102430008C4988424ADC8E49884200D18FE08D4920
:10244000884200D00CE199488C4941608C49016078
:102450008C488221C16796488B490160854D8B4924
:102460002846FEF73BFA8A492846FEF713FA03206E
:10247000C103904802688A4302600169864A0A40A3
:10248000D119016141693F22914389194161426833
:1024900001210A4043688B439A1842608A02864BA6
:1024A0001D6815431D6002680A43026088037C4969
:1024B0000860FF2109047B4A13688B43A107090ABE
:1024C000591811607849086001B0F0BD664988422A
:1024D00000D185E06549884200D0C1E07A4867496B
:1024E0004160674901606748822181616649C16135
:1024F0005E4D66492846FEF7F1F965492846FEF724
:10250000C9F90320C103714802688A430260016966
:10251000614A0A40D119016141693F2291438919F9
:102520004161426801210A4043688B439A18426026
:102530008A02674B1D6815431D6002680A430260EA
:10254000C80357490860FF210906564A13688B43A0
:10255000A107591811605449086001B0F0BD5748EF
:102560004649416046490160464882210161464929
:1025700041613F4D45492846FEF7B0F94449284698
:10258000FEF788F90320C0034D490A6882430A60B8
:102590000A6941480240D2190A614A693F239A43B5
:1025A00092194A614B68012213404D689543EB181C
:1025B0004B609302434D2E681E432E600B681343FD
:1025C0000B605103364A1160FF30364A13680340EE
:1025D000A00380B2181810603348016001B0F0BD4C
:1025E000254826494160264901602648822101602C
:1025F000254941601C4D25492846FEF76FF92449BD
:102600002846FEF747F90320C103224802688A439F
:1026100002600169204A0A40D119016141693F22E3
:1026200091438919416141680122114043689343F4
:10263000591841609102194B1D680D431D600168D6
:1026400011430160164808210160FF200006154A69
:102650000C3A13688343A0071818106012480160F1
:1026600001B0F0BDFF7F10400000504000801040DE
:10267000000010400020104000085040030000B14E
:10268000010000263C80424082000400E43100004A
:10269000E6310000001150400000FFFF28105040BC
:1026A00080E200E00CE400E000E100E000281040DF
:1026B000BC804240003110402830104000081040DB
:1026C0000011104028101040008810400091104068
:1026D0002890104043088B421AD3002203098B42F2
:1026E00079D3030A8B425ED3030B8B4242D3030C94
:1026F0008B4227D30902FF2212BA030C8B4202D36A
:102700001212090203D0030B8B4233D31AE0D3E039
:10271000411A8041401C704703460B4371D4430863
:102720008B42F5D3002203098B4254D3030A8B4218
:1027300039D3030B8B421DD3030C8B4202D3944637
:102740006EE0090AC30B8B4201D3CB03C01A52417E
:10275000830B8B4201D38B03C01A5241430B8B4234
:1027600001D34B03C01A5241030B8B4201D30B031D
:10277000C01A5241C30A8B4201D3CB02C01A524144
:10278000830A8B4201D38B02C01A5241430A8B4207
:1027900001D34B02C01A5241030A8B4201D30B02F0
:1027A000C01A5241CDD2C3098B4201D3CB01C01A0A
:1027B000524183098B4201D38B01C01A5241430914
:1027C0008B4201D34B01C01A524103098B4201D302
:1027D0000B01C01A5241C3088B4201D3CB00C01A6F
:1027E000524183088B4201D38B00C01A52414308E7
:1027F0008B4201D34B00C01A5241411A5241100082
:102800007047CA0F00D04942031000D340425340E2
:1028100000229C4603098B422DD3030A8B4212D31C
:102820008901FC2212BA030A8B420CD3890192114E
:102830008B4208D3890192118B4204D3890137D08E
:10284000921100E08909C3098B4201D3CB01C01A60
:10285000524183098B4201D38B01C01A5241430973
:102860008B4201D34B01C01A524103098B4201D361
:102870000B01C01A5241C3088B4201D3CB00C01ACE
:10288000524183088B4201D38B00C01A5241D9D2E6
:1028900043088B4201D34B00C01A5241411A00D267
:1028A00001465241104663465B1000D340427047D8
:1028B00063465B1000D3404201B50021004201D0C5
:1028C000C9430846C046C04602BD10B500F064F8D2
:1028D000EFF30080800001D5012010BD002010BD65
:1028E00010B500F059F8EFF300804000800F012888
:1028F00000D0002010BD10B500F078F8EFF3008094
:10290000800001D4012010BD002010BD70B501254C
:10291000ED0704004C4020D4441A01D2001B0919D1
:10292000C60D4B00F2B2FF2A29D01B0E2CD000029C
:102930000C0228432C43D31ADC40051910D2280A74
:1029400002D3401C6D0611D0761EF6058019FF2AB1
:1029500000DA70BDC00DC00570BD694000F0CEF852
:1029600001200543C541521C761CE8E764089C40E1
:10297000C90161408900E7D10124A043E4E71B0EAF
:10298000440200D0034870BD002AFCD1C00FC0072C
:1029900070BD00BF0000C07F0123DB0502000A43B9
:1029A0000DD4DA4203D49A4207D488427047D84201
:1029B00014D4D94212D48842704780427047DA4218
:1029C00003D59A42F9D5814270475B004200DA4252
:1029D00004D24A00DA4201D28142704710B5024A5D
:1029E000FDF72EFD10BD00BF090013040123DB0518
:1029F00002000A430DD4DA4203D49A4207D4884233
:102A00007047D84214D4D94212D4884270478042C9
:102A10007047DA4203D59A42F9D5814270475B008C
:102A20004200DA4204D24A00DA4201D281427047BF
:102A300010B5024AFDF704FD10BD00BF09001604E1
:102A400070B5420064414B005C41120E39D01B0E40
:102A500038D0FF2A3CD0FF2B3AD0D2187F3A400220
:102A60004902400A490A4518ED0106004E43000A92
:102A7000090A48430104731A4019190C4318990FA5
:102A800004D05B08012149075B1A521CD80904D302
:102A9000401CF50301D19D0607D0FF2A08D2D505B9
:102AA00006D0E4072043401970BD0125A843F4E790
:102AB000002A01DCE00770BD2402FF202043C0058E
:102AC00070BD1B0EFF2A03D0FF2B01D0E00770BDA5
:102AD000FF2636064500B54206D84D00B54203D85C
:102AE000D218FF2A00D0E7E7004870BD0000C07F81
:102AF00070B50125ED0704004C4022D4441A02D2DF
:102B00006C40001B0919C60D4B00F2B2FF2A4BD0D6
:102B10001B0E50D000020C02A8432C43D31ADC40F9
:102B2000051B05D5AD0019D36D08761E521E37D092
:102B3000F605280A01D2801970BD70416D0603D0D8
:102B400070BD6940FFF7E8FE9C4009026140490002
:102B500001D0401E70BD0124A04370BD6D081DD082
:102B600001202B0C01D12D0410302B0E01D12D0290
:102B700008302B0F01D12D01001DAB0F01D1AD008D
:102B8000801CEB0F01D16D00401C361A121A6D002B
:102B9000680AF5054019012A02DB70BD002070BDEE
:102BA000C036300AC00770BD1B0E440201D1FF2B96
:102BB00000D1024870BD002AF0D070BD0000C07F77
:102BC0000000000000000000000000000000000005
:102BD000000000F80000000000000033300000009A
:102BE00000100C06100C06000000000000000000A1
:102BF00040C07840C0784000043F04043F04040013
:102C0000007088FC08300000001820FF211E000022
:102C1000F008F000E018000000211C031E211E0037
:102C200000F00888700000001E21232419272110BD
:102C300010160E0000000000000000000000000060
:102C4000000000E018040200000000071820400007
:102C500000020418E00000000040201807000000F7
:102C6000404080F0804040000202010F010202005B
:102C7000000000F0000000000101011F010101003F
:102C8000000000000000000080B0700000000000A4
:102C9000000000000000000000010101010101012D
:102CA00000000000000000000030300000000000C4
:102CB0000000000080601804006018060100000099
:102CC00000E010080810E000000F102020100F0096
:102CD000001010F8000000000020203F202000001D
:102CE0000070080808887000003028242221300075
:102CF00000300888884830000018202020110E007D
:102D00000000C02010F8000000070424243F240025
:102D100000F80888880808000019212020110E00FA
:102D200000E0108888180000000F112020110E000C
:102D300000380808C83808000000003F0000000004
:102D40000070880808887000001C222121221C00C5
:102D500000E010080810E0000000312222110F00EE
:102D6000000000C0C0000000000000303000000083
:102D700000000080000000000000806000000000F3
:102D8000000080402010080000010204081020000C
:102D90004040404040404000040404040404040057
:102DA00000081020408000000020100804020100EC
:102DB000007048080808F0000000003036010000EC
:102DC000C030C828E810E0000718272423140B009F
:102DD0000000C038E0000000203C23020227382019
:102DE00008F8888888700000203F202020110E00FD
:102DF000C0300808080838000718202020100800F4
:102E000008F808080810E000203F202020100F00DC
:102E100008F88888E8081000203F202023201800A8
:102E200008F88888E8081000203F20000300000010
:102E3000C03008080838000007182020221E0200B1
:102E400008F808000008F808203F210101213F2070
:102E5000000808F8080800000020203F202000009B
:102E600000000808F8080800C08080807F0000008B
:102E700008F888C028180800203F200126382000C4
:102E800008F8080000000000203F2020202030002B
:102E900008F8F800F8F80800203F003F003F200045
:102EA00008F830C00008F808203F200007183F004D
:102EB000E01008080810E0000F10202020100F007C
:102EC00008F808080808F000203F2101010100006F
:102ED000E01008080810E0000F18242438504F00B4
:102EE00008F8888888887000203F2000030C302074
:102EF00000708808080838000038202121221C00B2
:102F0000180808F8080818000000203F20000000FA
:102F100008F808000008F808001F202020201F00E3
:102F20000878880000C83808000007380E01000043
:102F3000F80800F80008F800033C0700073C03000D
:102F4000081868808068180820302C03032C302073
:102F50000838C800C83808000000203F20000000E2
:102F600010080808C838080020382621202018003A
:102F7000000000FE020202000000007F404040000E
:102F8000000C30C000000000000000010638C00046
:102F900000020202FE000000004040407F000000EE
:102FA0000000040202020400000000000000000013
:102FB0000000000000000000808080808080808011
:102FC00000020204000000000000000000000000F9
:102FD00000008080808000000019242222223F20EF
:102FE00008F8008080000000003F112020110E0032
:102FF0000000008080800000000E112020201100C1
:10300000000000808088F800000E112020103F2072
:103010000000808080800000001F222222221300F6
:10302000008080F0888888180020203F2020000041
:103030000000808080808000006B949494936000F6
:1030400008F8008080800000203F210000203F2001
:1030500000809898000000000020203F2020000001
:10306000000000809898000000C08080807F0000F1
:1030700008F8000080808000203F24022D302000CE
:10308000000808F8000000000020203F2020000079
:103090008080808080808000203F20003F20003F93
:1030A0008080008080800000203F210000203F20A1
:1030B0000000808080800000001F202020201F0052
:1030C000808000808000000080FFA12020110E0081
:1030D0000000008080808000000E112020A0FF8072
:1030E000808080008080800020203F21200001001F
:1030F0000000808080808000003324242424190074
:10310000008080E0808000000000001F2020000080
:103110008080000000808000001F202020103F20C1
:10312000808080000080808000010E300806010051
:1031300080800080008080800F300C030C300F00F6
:1031400000808000808080000020312E0E31200021
:10315000808080000080808080818E701806010051
:1031600000808080808080000021302C222130006F
:1031700000000000807C020200000000003F404090
:1031800000000000FF00000000000000FF00000041
:103190000002027C800000000040403F0000000070
:1031A000000601010202040400000000000000000B
:1031B00003000000010000000000000040000000CB
:1031C00020000000000000000200000009000000D4
:1031D000010000002C00C441543A0053743A535487
:1031E00050007300040000001800000000300000D0
:1031F00000320000000020204806000028010000E6
:04000005000000C136
:00000001FF
